{
	"contrato/KipuBank.sol": {
		"KipuBank": {
			"abi": [
				{
					"inputs": [
						{
							"internalType": "uint256",
							"name": "_withdrawalLimit",
							"type": "uint256"
						},
						{
							"internalType": "uint256",
							"name": "_bankCap",
							"type": "uint256"
						}
					],
					"stateMutability": "nonpayable",
					"type": "constructor"
				},
				{
					"inputs": [
						{
							"internalType": "uint256",
							"name": "attempted",
							"type": "uint256"
						},
						{
							"internalType": "uint256",
							"name": "limit",
							"type": "uint256"
						}
					],
					"name": "DepositExceedsBankCap",
					"type": "error"
				},
				{
					"inputs": [],
					"name": "DepositMustBeGreaterThanZero",
					"type": "error"
				},
				{
					"inputs": [
						{
							"internalType": "uint256",
							"name": "attempted",
							"type": "uint256"
						},
						{
							"internalType": "uint256",
							"name": "available",
							"type": "uint256"
						}
					],
					"name": "InsufficientBalance",
					"type": "error"
				},
				{
					"inputs": [],
					"name": "NoFundsDeposited",
					"type": "error"
				},
				{
					"inputs": [],
					"name": "TransferFailed",
					"type": "error"
				},
				{
					"inputs": [
						{
							"internalType": "uint256",
							"name": "attempted",
							"type": "uint256"
						},
						{
							"internalType": "uint256",
							"name": "limit",
							"type": "uint256"
						}
					],
					"name": "WithdrawalExceedsLimit",
					"type": "error"
				},
				{
					"inputs": [],
					"name": "WithdrawalMustBeGreaterThanZero",
					"type": "error"
				},
				{
					"anonymous": false,
					"inputs": [
						{
							"indexed": true,
							"internalType": "address",
							"name": "user",
							"type": "address"
						},
						{
							"indexed": false,
							"internalType": "uint256",
							"name": "amount",
							"type": "uint256"
						},
						{
							"indexed": false,
							"internalType": "uint256",
							"name": "newBalance",
							"type": "uint256"
						}
					],
					"name": "DepositMade",
					"type": "event"
				},
				{
					"anonymous": false,
					"inputs": [
						{
							"indexed": true,
							"internalType": "address",
							"name": "user",
							"type": "address"
						},
						{
							"indexed": false,
							"internalType": "uint256",
							"name": "amount",
							"type": "uint256"
						},
						{
							"indexed": false,
							"internalType": "uint256",
							"name": "newBalance",
							"type": "uint256"
						}
					],
					"name": "WithdrawalMade",
					"type": "event"
				},
				{
					"inputs": [],
					"name": "VERSION",
					"outputs": [
						{
							"internalType": "string",
							"name": "",
							"type": "string"
						}
					],
					"stateMutability": "view",
					"type": "function"
				},
				{
					"inputs": [],
					"name": "bankCap",
					"outputs": [
						{
							"internalType": "uint256",
							"name": "",
							"type": "uint256"
						}
					],
					"stateMutability": "view",
					"type": "function"
				},
				{
					"inputs": [],
					"name": "deposit",
					"outputs": [],
					"stateMutability": "payable",
					"type": "function"
				},
				{
					"inputs": [],
					"name": "getBankStats",
					"outputs": [
						{
							"internalType": "uint256",
							"name": "_totalDeposited",
							"type": "uint256"
						},
						{
							"internalType": "uint256",
							"name": "_totalDeposits",
							"type": "uint256"
						},
						{
							"internalType": "uint256",
							"name": "_totalWithdrawals",
							"type": "uint256"
						},
						{
							"internalType": "uint256",
							"name": "_bankUtilization",
							"type": "uint256"
						}
					],
					"stateMutability": "view",
					"type": "function"
				},
				{
					"inputs": [
						{
							"internalType": "address",
							"name": "user",
							"type": "address"
						}
					],
					"name": "getUserBalance",
					"outputs": [
						{
							"internalType": "uint256",
							"name": "balance",
							"type": "uint256"
						}
					],
					"stateMutability": "view",
					"type": "function"
				},
				{
					"inputs": [
						{
							"internalType": "address",
							"name": "user",
							"type": "address"
						}
					],
					"name": "getUserStats",
					"outputs": [
						{
							"internalType": "uint256",
							"name": "balance",
							"type": "uint256"
						},
						{
							"internalType": "uint256",
							"name": "deposits",
							"type": "uint256"
						},
						{
							"internalType": "uint256",
							"name": "withdrawals",
							"type": "uint256"
						}
					],
					"stateMutability": "view",
					"type": "function"
				},
				{
					"inputs": [],
					"name": "owner",
					"outputs": [
						{
							"internalType": "address",
							"name": "",
							"type": "address"
						}
					],
					"stateMutability": "view",
					"type": "function"
				},
				{
					"inputs": [],
					"name": "totalDeposited",
					"outputs": [
						{
							"internalType": "uint256",
							"name": "",
							"type": "uint256"
						}
					],
					"stateMutability": "view",
					"type": "function"
				},
				{
					"inputs": [],
					"name": "totalDeposits",
					"outputs": [
						{
							"internalType": "uint256",
							"name": "",
							"type": "uint256"
						}
					],
					"stateMutability": "view",
					"type": "function"
				},
				{
					"inputs": [],
					"name": "totalWithdrawals",
					"outputs": [
						{
							"internalType": "uint256",
							"name": "",
							"type": "uint256"
						}
					],
					"stateMutability": "view",
					"type": "function"
				},
				{
					"inputs": [
						{
							"internalType": "address",
							"name": "",
							"type": "address"
						}
					],
					"name": "userBalances",
					"outputs": [
						{
							"internalType": "uint256",
							"name": "",
							"type": "uint256"
						}
					],
					"stateMutability": "view",
					"type": "function"
				},
				{
					"inputs": [
						{
							"internalType": "address",
							"name": "",
							"type": "address"
						}
					],
					"name": "userDepositCount",
					"outputs": [
						{
							"internalType": "uint256",
							"name": "",
							"type": "uint256"
						}
					],
					"stateMutability": "view",
					"type": "function"
				},
				{
					"inputs": [
						{
							"internalType": "address",
							"name": "",
							"type": "address"
						}
					],
					"name": "userWithdrawalCount",
					"outputs": [
						{
							"internalType": "uint256",
							"name": "",
							"type": "uint256"
						}
					],
					"stateMutability": "view",
					"type": "function"
				},
				{
					"inputs": [
						{
							"internalType": "uint256",
							"name": "amount",
							"type": "uint256"
						}
					],
					"name": "withdraw",
					"outputs": [],
					"stateMutability": "nonpayable",
					"type": "function"
				},
				{
					"inputs": [],
					"name": "withdrawalLimit",
					"outputs": [
						{
							"internalType": "uint256",
							"name": "",
							"type": "uint256"
						}
					],
					"stateMutability": "view",
					"type": "function"
				},
				{
					"stateMutability": "payable",
					"type": "receive"
				}
			],
			"devdoc": {
				"author": "Tu Nombre",
				"details": "Implementa límites de depósito global y retiro por transacción",
				"errors": {
					"DepositExceedsBankCap(uint256,uint256)": [
						{
							"params": {
								"attempted": "Cantidad que se intentó depositar",
								"limit": "Límite máximo permitido"
							}
						}
					],
					"InsufficientBalance(uint256,uint256)": [
						{
							"params": {
								"attempted": "Cantidad que se intentó retirar",
								"available": "Balance disponible del usuario"
							}
						}
					],
					"WithdrawalExceedsLimit(uint256,uint256)": [
						{
							"params": {
								"attempted": "Cantidad que se intentó retirar",
								"limit": "Límite máximo por transacción"
							}
						}
					]
				},
				"events": {
					"DepositMade(address,uint256,uint256)": {
						"params": {
							"amount": "Cantidad depositada en wei",
							"newBalance": "Nuevo balance del usuario después del depósito",
							"user": "Dirección del usuario que depositó"
						}
					},
					"WithdrawalMade(address,uint256,uint256)": {
						"params": {
							"amount": "Cantidad retirada en wei",
							"newBalance": "Nuevo balance del usuario después del retiro",
							"user": "Dirección del usuario que retiró"
						}
					}
				},
				"kind": "dev",
				"methods": {
					"constructor": {
						"details": "Establece los límites immutable y el propietario",
						"params": {
							"_bankCap": "Límite máximo de depósitos totales en el banco",
							"_withdrawalLimit": "Límite máximo de retiro por transacción"
						}
					},
					"deposit()": {
						"details": "Función payable que acepta ETH y actualiza el balance del usuario Requirements: - El depósito debe ser mayor que 0 - El depósito no debe exceder el límite del banco"
					},
					"getBankStats()": {
						"details": "Función view que retorna múltiples valores",
						"returns": {
							"_bankUtilization": "Porcentaje de utilización del banco (en basis points)",
							"_totalDeposited": "Total depositado en el banco",
							"_totalDeposits": "Número total de depósitos",
							"_totalWithdrawals": "Número total de retiros"
						}
					},
					"getUserBalance(address)": {
						"details": "Función view que no modifica el estado",
						"params": {
							"user": "Dirección del usuario a consultar"
						},
						"returns": {
							"balance": "Balance del usuario en wei"
						}
					},
					"getUserStats(address)": {
						"details": "Función view que retorna información detallada del usuario",
						"params": {
							"user": "Dirección del usuario a consultar"
						},
						"returns": {
							"balance": "Balance actual del usuario",
							"deposits": "Número de depósitos realizados",
							"withdrawals": "Número de retiros realizados"
						}
					},
					"withdraw(uint256)": {
						"details": "Función external que transfiere ETH al usuario",
						"params": {
							"amount": "Cantidad a retirar en wei Requirements: - El usuario debe tener fondos depositados - La cantidad debe ser mayor que 0 - La cantidad no debe exceder el límite de retiro por transacción - El usuario debe tener suficiente balance"
						}
					}
				},
				"stateVariables": {
					"VERSION": {
						"details": "Variable constante para identificar la versión"
					},
					"bankCap": {
						"details": "Variable immutable establecida en el constructor"
					},
					"owner": {
						"details": "Se establece en el constructor con msg.sender"
					},
					"totalDeposited": {
						"details": "Se actualiza en cada depósito y retiro"
					},
					"totalDeposits": {
						"details": "Se incrementa en cada depósito exitoso"
					},
					"totalWithdrawals": {
						"details": "Se incrementa en cada retiro exitoso"
					},
					"userBalances": {
						"details": "Lleva registro del balance de cada usuario"
					},
					"userDepositCount": {
						"details": "Lleva registro de cuántos depósitos ha hecho cada usuario"
					},
					"userWithdrawalCount": {
						"details": "Lleva registro de cuántos retiros ha hecho cada usuario"
					},
					"withdrawalLimit": {
						"details": "Variable immutable establecida en el constructor"
					}
				},
				"title": "KipuBank",
				"version": 1
			},
			"evm": {
				"assembly": "    /* \"contrato/KipuBank.sol\":268:11023  contract KipuBank {... */\n  mstore(0x40, 0xc0)\n    /* \"contrato/KipuBank.sol\":5162:5329  constructor(uint256 _withdrawalLimit, uint256 _bankCap) {... */\n  callvalue\n  dup1\n  iszero\n  tag_1\n  jumpi\n  revert(0x00, 0x00)\ntag_1:\n  pop\n  mload(0x40)\n  sub(codesize, bytecodeSize)\n  dup1\n  bytecodeSize\n  dup4\n  codecopy\n  dup2\n  dup2\n  add\n  0x40\n  mstore\n  dup2\n  add\n  swap1\n  tag_2\n  swap2\n  swap1\n  tag_3\n  jump\t// in\ntag_2:\n    /* \"contrato/KipuBank.sol\":5247:5263  _withdrawalLimit */\n  dup2\n    /* \"contrato/KipuBank.sol\":5229:5263  withdrawalLimit = _withdrawalLimit */\n  0x80\n  dup2\n  dup2\n  mstore\n  pop\n  pop\n    /* \"contrato/KipuBank.sol\":5284:5292  _bankCap */\n  dup1\n    /* \"contrato/KipuBank.sol\":5274:5292  bankCap = _bankCap */\n  0xa0\n  dup2\n  dup2\n  mstore\n  pop\n  pop\n    /* \"contrato/KipuBank.sol\":5311:5321  msg.sender */\n  caller\n    /* \"contrato/KipuBank.sol\":5303:5308  owner */\n  0x03\n  0x00\n    /* \"contrato/KipuBank.sol\":5303:5321  owner = msg.sender */\n  0x0100\n  exp\n  dup2\n  sload\n  dup2\n  0xffffffffffffffffffffffffffffffffffffffff\n  mul\n  not\n  and\n  swap1\n  dup4\n  0xffffffffffffffffffffffffffffffffffffffff\n  and\n  mul\n  or\n  swap1\n  sstore\n  pop\n    /* \"contrato/KipuBank.sol\":5162:5329  constructor(uint256 _withdrawalLimit, uint256 _bankCap) {... */\n  pop\n  pop\n    /* \"contrato/KipuBank.sol\":268:11023  contract KipuBank {... */\n  jump(tag_6)\n    /* \"#utility.yul\":88:205   */\ntag_8:\n    /* \"#utility.yul\":197:198   */\n  0x00\n    /* \"#utility.yul\":194:195   */\n  0x00\n    /* \"#utility.yul\":187:199   */\n  revert\n    /* \"#utility.yul\":334:411   */\ntag_10:\n    /* \"#utility.yul\":371:378   */\n  0x00\n    /* \"#utility.yul\":400:405   */\n  dup2\n    /* \"#utility.yul\":389:405   */\n  swap1\n  pop\n    /* \"#utility.yul\":334:411   */\n  swap2\n  swap1\n  pop\n  jump\t// out\n    /* \"#utility.yul\":417:539   */\ntag_11:\n    /* \"#utility.yul\":490:514   */\n  tag_19\n    /* \"#utility.yul\":508:513   */\n  dup2\n    /* \"#utility.yul\":490:514   */\n  tag_10\n  jump\t// in\ntag_19:\n    /* \"#utility.yul\":483:488   */\n  dup2\n    /* \"#utility.yul\":480:515   */\n  eq\n    /* \"#utility.yul\":470:533   */\n  tag_20\n  jumpi\n    /* \"#utility.yul\":529:530   */\n  0x00\n    /* \"#utility.yul\":526:527   */\n  0x00\n    /* \"#utility.yul\":519:531   */\n  revert\n    /* \"#utility.yul\":470:533   */\ntag_20:\n    /* \"#utility.yul\":417:539   */\n  pop\n  jump\t// out\n    /* \"#utility.yul\":545:688   */\ntag_12:\n    /* \"#utility.yul\":602:607   */\n  0x00\n    /* \"#utility.yul\":633:639   */\n  dup2\n    /* \"#utility.yul\":627:640   */\n  mload\n    /* \"#utility.yul\":618:640   */\n  swap1\n  pop\n    /* \"#utility.yul\":649:682   */\n  tag_22\n    /* \"#utility.yul\":676:681   */\n  dup2\n    /* \"#utility.yul\":649:682   */\n  tag_11\n  jump\t// in\ntag_22:\n    /* \"#utility.yul\":545:688   */\n  swap3\n  swap2\n  pop\n  pop\n  jump\t// out\n    /* \"#utility.yul\":694:1201   */\ntag_3:\n    /* \"#utility.yul\":773:779   */\n  0x00\n    /* \"#utility.yul\":781:787   */\n  0x00\n    /* \"#utility.yul\":830:832   */\n  0x40\n    /* \"#utility.yul\":818:827   */\n  dup4\n    /* \"#utility.yul\":809:816   */\n  dup6\n    /* \"#utility.yul\":805:828   */\n  sub\n    /* \"#utility.yul\":801:833   */\n  slt\n    /* \"#utility.yul\":798:917   */\n  iszero\n  tag_24\n  jumpi\n    /* \"#utility.yul\":836:915   */\n  tag_25\n  tag_8\n  jump\t// in\ntag_25:\n    /* \"#utility.yul\":798:917   */\ntag_24:\n    /* \"#utility.yul\":956:957   */\n  0x00\n    /* \"#utility.yul\":981:1045   */\n  tag_26\n    /* \"#utility.yul\":1037:1044   */\n  dup6\n    /* \"#utility.yul\":1028:1034   */\n  dup3\n    /* \"#utility.yul\":1017:1026   */\n  dup7\n    /* \"#utility.yul\":1013:1035   */\n  add\n    /* \"#utility.yul\":981:1045   */\n  tag_12\n  jump\t// in\ntag_26:\n    /* \"#utility.yul\":971:1045   */\n  swap3\n  pop\n    /* \"#utility.yul\":927:1055   */\n  pop\n    /* \"#utility.yul\":1094:1096   */\n  0x20\n    /* \"#utility.yul\":1120:1184   */\n  tag_27\n    /* \"#utility.yul\":1176:1183   */\n  dup6\n    /* \"#utility.yul\":1167:1173   */\n  dup3\n    /* \"#utility.yul\":1156:1165   */\n  dup7\n    /* \"#utility.yul\":1152:1174   */\n  add\n    /* \"#utility.yul\":1120:1184   */\n  tag_12\n  jump\t// in\ntag_27:\n    /* \"#utility.yul\":1110:1184   */\n  swap2\n  pop\n    /* \"#utility.yul\":1065:1194   */\n  pop\n    /* \"#utility.yul\":694:1201   */\n  swap3\n  pop\n  swap3\n  swap1\n  pop\n  jump\t// out\n    /* \"contrato/KipuBank.sol\":268:11023  contract KipuBank {... */\ntag_6:\n  mload(0x80)\n  mload(0xa0)\n  codecopy(0x00, dataOffset(sub_0), dataSize(sub_0))\n  0x00\n  assignImmutable(\"0xe4b1702d9298fee62dfeccc57d322a463ad55ca201256d01f62b45b2e1c21c10\")\n  0x00\n  assignImmutable(\"0xceebf77a833b30520287ddd9478ff51abbdffa30aa90a8d655dba0e8a79ce0c1\")\n  return(0x00, dataSize(sub_0))\nstop\n\nsub_0: assembly {\n        /* \"contrato/KipuBank.sol\":268:11023  contract KipuBank {... */\n      mstore(0x40, 0x80)\n      jumpi(tag_1, lt(calldatasize, 0x04))\n      shr(0xe0, calldataload(0x00))\n      dup1\n      0x7d882097\n      gt\n      tag_18\n      jumpi\n      dup1\n      0xd0e30db0\n      gt\n      tag_19\n      jumpi\n      dup1\n      0xd0e30db0\n      eq\n      tag_14\n      jumpi\n      dup1\n      0xecbea24d\n      eq\n      tag_15\n      jumpi\n      dup1\n      0xff50abdc\n      eq\n      tag_16\n      jumpi\n      dup1\n      0xffa1ad74\n      eq\n      tag_17\n      jumpi\n      jump(tag_2)\n    tag_19:\n      dup1\n      0x7d882097\n      eq\n      tag_10\n      jumpi\n      dup1\n      0x7ddfe78d\n      eq\n      tag_11\n      jumpi\n      dup1\n      0x8da5cb5b\n      eq\n      tag_12\n      jumpi\n      dup1\n      0xc6e8e38c\n      eq\n      tag_13\n      jumpi\n      jump(tag_2)\n    tag_18:\n      dup1\n      0x47734892\n      gt\n      tag_20\n      jumpi\n      dup1\n      0x47734892\n      eq\n      tag_6\n      jumpi\n      dup1\n      0x4e43603a\n      eq\n      tag_7\n      jumpi\n      dup1\n      0x60464627\n      eq\n      tag_8\n      jumpi\n      dup1\n      0x729c3e0e\n      eq\n      tag_9\n      jumpi\n      jump(tag_2)\n    tag_20:\n      dup1\n      0x26224c64\n      eq\n      tag_3\n      jumpi\n      dup1\n      0x27275146\n      eq\n      tag_4\n      jumpi\n      dup1\n      0x2e1a7d4d\n      eq\n      tag_5\n      jumpi\n      jump(tag_2)\n    tag_1:\n      jumpi(tag_2, calldatasize)\n        /* \"contrato/KipuBank.sol\":10498:10499  0 */\n      0x00\n        /* \"contrato/KipuBank.sol\":10485:10494  msg.value */\n      callvalue\n        /* \"contrato/KipuBank.sol\":10485:10499  msg.value == 0 */\n      sub\n        /* \"contrato/KipuBank.sol\":10481:10565  if (msg.value == 0) {... */\n      tag_23\n      jumpi\n        /* \"contrato/KipuBank.sol\":10523:10553  DepositMustBeGreaterThanZero() */\n      mload(0x40)\n      0x836971dc00000000000000000000000000000000000000000000000000000000\n      dup2\n      mstore\n      0x04\n      add\n      mload(0x40)\n      dup1\n      swap2\n      sub\n      swap1\n      revert\n        /* \"contrato/KipuBank.sol\":10481:10565  if (msg.value == 0) {... */\n    tag_23:\n        /* \"contrato/KipuBank.sol\":10618:10625  bankCap */\n      immutable(\"0xe4b1702d9298fee62dfeccc57d322a463ad55ca201256d01f62b45b2e1c21c10\")\n        /* \"contrato/KipuBank.sol\":10606:10615  msg.value */\n      callvalue\n        /* \"contrato/KipuBank.sol\":10589:10603  totalDeposited */\n      sload(0x00)\n        /* \"contrato/KipuBank.sol\":10589:10615  totalDeposited + msg.value */\n      tag_24\n      swap2\n      swap1\n      tag_25\n      jump\t// in\n    tag_24:\n        /* \"contrato/KipuBank.sol\":10589:10625  totalDeposited + msg.value > bankCap */\n      gt\n        /* \"contrato/KipuBank.sol\":10585:10719  if (totalDeposited + msg.value > bankCap) {... */\n      iszero\n      tag_26\n      jumpi\n        /* \"contrato/KipuBank.sol\":10671:10680  msg.value */\n      callvalue\n        /* \"contrato/KipuBank.sol\":10692:10706  totalDeposited */\n      sload(0x00)\n        /* \"contrato/KipuBank.sol\":10682:10689  bankCap */\n      immutable(\"0xe4b1702d9298fee62dfeccc57d322a463ad55ca201256d01f62b45b2e1c21c10\")\n        /* \"contrato/KipuBank.sol\":10682:10706  bankCap - totalDeposited */\n      tag_27\n      swap2\n      swap1\n      tag_28\n      jump\t// in\n    tag_27:\n        /* \"contrato/KipuBank.sol\":10649:10707  DepositExceedsBankCap(msg.value, bankCap - totalDeposited) */\n      mload(0x40)\n      0x0aac9bf800000000000000000000000000000000000000000000000000000000\n      dup2\n      mstore\n      0x04\n      add\n      tag_29\n      swap3\n      swap2\n      swap1\n      tag_30\n      jump\t// in\n    tag_29:\n      mload(0x40)\n      dup1\n      swap2\n      sub\n      swap1\n      revert\n        /* \"contrato/KipuBank.sol\":10585:10719  if (totalDeposited + msg.value > bankCap) {... */\n    tag_26:\n        /* \"contrato/KipuBank.sol\":10787:10796  msg.value */\n      callvalue\n        /* \"contrato/KipuBank.sol\":10759:10771  userBalances */\n      0x04\n        /* \"contrato/KipuBank.sol\":10759:10783  userBalances[msg.sender] */\n      0x00\n        /* \"contrato/KipuBank.sol\":10772:10782  msg.sender */\n      caller\n        /* \"contrato/KipuBank.sol\":10759:10783  userBalances[msg.sender] */\n      0xffffffffffffffffffffffffffffffffffffffff\n      and\n      0xffffffffffffffffffffffffffffffffffffffff\n      and\n      dup2\n      mstore\n      0x20\n      add\n      swap1\n      dup2\n      mstore\n      0x20\n      add\n      0x00\n      keccak256\n      0x00\n        /* \"contrato/KipuBank.sol\":10759:10796  userBalances[msg.sender] += msg.value */\n      dup3\n      dup3\n      sload\n      tag_31\n      swap2\n      swap1\n      tag_25\n      jump\t// in\n    tag_31:\n      swap3\n      pop\n      pop\n      dup2\n      swap1\n      sstore\n      pop\n        /* \"contrato/KipuBank.sol\":10825:10834  msg.value */\n      callvalue\n        /* \"contrato/KipuBank.sol\":10807:10821  totalDeposited */\n      0x00\n      0x00\n        /* \"contrato/KipuBank.sol\":10807:10834  totalDeposited += msg.value */\n      dup3\n      dup3\n      sload\n      tag_32\n      swap2\n      swap1\n      tag_25\n      jump\t// in\n    tag_32:\n      swap3\n      pop\n      pop\n      dup2\n      swap1\n      sstore\n      pop\n        /* \"contrato/KipuBank.sol\":10845:10858  totalDeposits */\n      0x01\n      0x00\n        /* \"contrato/KipuBank.sol\":10845:10860  totalDeposits++ */\n      dup2\n      sload\n      dup1\n      swap3\n      swap2\n      swap1\n      tag_33\n      swap1\n      tag_34\n      jump\t// in\n    tag_33:\n      swap2\n      swap1\n      pop\n      sstore\n      pop\n        /* \"contrato/KipuBank.sol\":10871:10887  userDepositCount */\n      0x05\n        /* \"contrato/KipuBank.sol\":10871:10899  userDepositCount[msg.sender] */\n      0x00\n        /* \"contrato/KipuBank.sol\":10888:10898  msg.sender */\n      caller\n        /* \"contrato/KipuBank.sol\":10871:10899  userDepositCount[msg.sender] */\n      0xffffffffffffffffffffffffffffffffffffffff\n      and\n      0xffffffffffffffffffffffffffffffffffffffff\n      and\n      dup2\n      mstore\n      0x20\n      add\n      swap1\n      dup2\n      mstore\n      0x20\n      add\n      0x00\n      keccak256\n      0x00\n        /* \"contrato/KipuBank.sol\":10871:10901  userDepositCount[msg.sender]++ */\n      dup2\n      sload\n      dup1\n      swap3\n      swap2\n      swap1\n      tag_35\n      swap1\n      tag_34\n      jump\t// in\n    tag_35:\n      swap2\n      swap1\n      pop\n      sstore\n      pop\n        /* \"contrato/KipuBank.sol\":10964:10974  msg.sender */\n      caller\n        /* \"contrato/KipuBank.sol\":10952:11012  DepositMade(msg.sender, msg.value, userBalances[msg.sender]) */\n      0xffffffffffffffffffffffffffffffffffffffff\n      and\n      0x0b05f0d1cd0819f155b8a61f60baf7767c1ee49d04aeaab701df236140eb93f9\n        /* \"contrato/KipuBank.sol\":10976:10985  msg.value */\n      callvalue\n        /* \"contrato/KipuBank.sol\":10987:10999  userBalances */\n      0x04\n        /* \"contrato/KipuBank.sol\":10987:11011  userBalances[msg.sender] */\n      0x00\n        /* \"contrato/KipuBank.sol\":11000:11010  msg.sender */\n      caller\n        /* \"contrato/KipuBank.sol\":10987:11011  userBalances[msg.sender] */\n      0xffffffffffffffffffffffffffffffffffffffff\n      and\n      0xffffffffffffffffffffffffffffffffffffffff\n      and\n      dup2\n      mstore\n      0x20\n      add\n      swap1\n      dup2\n      mstore\n      0x20\n      add\n      0x00\n      keccak256\n      sload\n        /* \"contrato/KipuBank.sol\":10952:11012  DepositMade(msg.sender, msg.value, userBalances[msg.sender]) */\n      mload(0x40)\n      tag_36\n      swap3\n      swap2\n      swap1\n      tag_30\n      jump\t// in\n    tag_36:\n      mload(0x40)\n      dup1\n      swap2\n      sub\n      swap1\n      log2\n        /* \"contrato/KipuBank.sol\":268:11023  contract KipuBank {... */\n      stop\n    tag_2:\n      revert(0x00, 0x00)\n        /* \"contrato/KipuBank.sol\":1841:1888  mapping(address => uint256) public userBalances */\n    tag_3:\n      callvalue\n      dup1\n      iszero\n      tag_37\n      jumpi\n      revert(0x00, 0x00)\n    tag_37:\n      pop\n      tag_38\n      0x04\n      dup1\n      calldatasize\n      sub\n      dup2\n      add\n      swap1\n      tag_39\n      swap2\n      swap1\n      tag_40\n      jump\t// in\n    tag_39:\n      tag_41\n      jump\t// in\n    tag_38:\n      mload(0x40)\n      tag_42\n      swap2\n      swap1\n      tag_43\n      jump\t// in\n    tag_42:\n      mload(0x40)\n      dup1\n      swap2\n      sub\n      swap1\n      return\n        /* \"contrato/KipuBank.sol\":2285:2339  mapping(address => uint256) public userWithdrawalCount */\n    tag_4:\n      callvalue\n      dup1\n      iszero\n      tag_44\n      jumpi\n      revert(0x00, 0x00)\n    tag_44:\n      pop\n      tag_45\n      0x04\n      dup1\n      calldatasize\n      sub\n      dup2\n      add\n      swap1\n      tag_46\n      swap2\n      swap1\n      tag_40\n      jump\t// in\n    tag_46:\n      tag_47\n      jump\t// in\n    tag_45:\n      mload(0x40)\n      tag_48\n      swap2\n      swap1\n      tag_43\n      jump\t// in\n    tag_48:\n      mload(0x40)\n      dup1\n      swap2\n      sub\n      swap1\n      return\n        /* \"contrato/KipuBank.sol\":6778:7579  function withdraw(uint256 amount) external hasDeposits {... */\n    tag_5:\n      callvalue\n      dup1\n      iszero\n      tag_49\n      jumpi\n      revert(0x00, 0x00)\n    tag_49:\n      pop\n      tag_50\n      0x04\n      dup1\n      calldatasize\n      sub\n      dup2\n      add\n      swap1\n      tag_51\n      swap2\n      swap1\n      tag_52\n      jump\t// in\n    tag_51:\n      tag_53\n      jump\t// in\n    tag_50:\n      stop\n        /* \"contrato/KipuBank.sol\":7889:8011  function getUserBalance(address user) external view returns (uint256 balance) {... */\n    tag_6:\n      callvalue\n      dup1\n      iszero\n      tag_54\n      jumpi\n      revert(0x00, 0x00)\n    tag_54:\n      pop\n      tag_55\n      0x04\n      dup1\n      calldatasize\n      sub\n      dup2\n      add\n      swap1\n      tag_56\n      swap2\n      swap1\n      tag_40\n      jump\t// in\n    tag_56:\n      tag_57\n      jump\t// in\n    tag_55:\n      mload(0x40)\n      tag_58\n      swap2\n      swap1\n      tag_43\n      jump\t// in\n    tag_58:\n      mload(0x40)\n      dup1\n      swap2\n      sub\n      swap1\n      return\n        /* \"contrato/KipuBank.sol\":9386:9676  function getUserStats(address user) external view returns (... */\n    tag_7:\n      callvalue\n      dup1\n      iszero\n      tag_59\n      jumpi\n      revert(0x00, 0x00)\n    tag_59:\n      pop\n      tag_60\n      0x04\n      dup1\n      calldatasize\n      sub\n      dup2\n      add\n      swap1\n      tag_61\n      swap2\n      swap1\n      tag_40\n      jump\t// in\n    tag_61:\n      tag_62\n      jump\t// in\n    tag_60:\n      mload(0x40)\n      tag_63\n      swap4\n      swap3\n      swap2\n      swap1\n      tag_64\n      jump\t// in\n    tag_63:\n      mload(0x40)\n      dup1\n      swap2\n      sub\n      swap1\n      return\n        /* \"contrato/KipuBank.sol\":1449:1480  uint256 public totalWithdrawals */\n    tag_8:\n      callvalue\n      dup1\n      iszero\n      tag_65\n      jumpi\n      revert(0x00, 0x00)\n    tag_65:\n      pop\n      tag_66\n      tag_67\n      jump\t// in\n    tag_66:\n      mload(0x40)\n      tag_68\n      swap2\n      swap1\n      tag_43\n      jump\t// in\n    tag_68:\n      mload(0x40)\n      dup1\n      swap2\n      sub\n      swap1\n      return\n        /* \"contrato/KipuBank.sol\":2064:2115  mapping(address => uint256) public userDepositCount */\n    tag_9:\n      callvalue\n      dup1\n      iszero\n      tag_69\n      jumpi\n      revert(0x00, 0x00)\n    tag_69:\n      pop\n      tag_70\n      0x04\n      dup1\n      calldatasize\n      sub\n      dup2\n      add\n      swap1\n      tag_71\n      swap2\n      swap1\n      tag_40\n      jump\t// in\n    tag_71:\n      tag_72\n      jump\t// in\n    tag_70:\n      mload(0x40)\n      tag_73\n      swap2\n      swap1\n      tag_43\n      jump\t// in\n    tag_73:\n      mload(0x40)\n      dup1\n      swap2\n      sub\n      swap1\n      return\n        /* \"contrato/KipuBank.sol\":1287:1315  uint256 public totalDeposits */\n    tag_10:\n      callvalue\n      dup1\n      iszero\n      tag_74\n      jumpi\n      revert(0x00, 0x00)\n    tag_74:\n      pop\n      tag_75\n      tag_76\n      jump\t// in\n    tag_75:\n      mload(0x40)\n      tag_77\n      swap2\n      swap1\n      tag_43\n      jump\t// in\n    tag_77:\n      mload(0x40)\n      dup1\n      swap2\n      sub\n      swap1\n      return\n        /* \"contrato/KipuBank.sol\":515:555  uint256 public immutable withdrawalLimit */\n    tag_11:\n      callvalue\n      dup1\n      iszero\n      tag_78\n      jumpi\n      revert(0x00, 0x00)\n    tag_78:\n      pop\n      tag_79\n      tag_80\n      jump\t// in\n    tag_79:\n      mload(0x40)\n      tag_81\n      swap2\n      swap1\n      tag_43\n      jump\t// in\n    tag_81:\n      mload(0x40)\n      dup1\n      swap2\n      sub\n      swap1\n      return\n        /* \"contrato/KipuBank.sol\":1626:1646  address public owner */\n    tag_12:\n      callvalue\n      dup1\n      iszero\n      tag_82\n      jumpi\n      revert(0x00, 0x00)\n    tag_82:\n      pop\n      tag_83\n      tag_84\n      jump\t// in\n    tag_83:\n      mload(0x40)\n      tag_85\n      swap2\n      swap1\n      tag_86\n      jump\t// in\n    tag_85:\n      mload(0x40)\n      dup1\n      swap2\n      sub\n      swap1\n      return\n        /* \"contrato/KipuBank.sol\":8424:8996  function getBankStats() external view returns (... */\n    tag_13:\n      callvalue\n      dup1\n      iszero\n      tag_87\n      jumpi\n      revert(0x00, 0x00)\n    tag_87:\n      pop\n      tag_88\n      tag_89\n      jump\t// in\n    tag_88:\n      mload(0x40)\n      tag_90\n      swap5\n      swap4\n      swap3\n      swap2\n      swap1\n      tag_91\n      jump\t// in\n    tag_90:\n      mload(0x40)\n      dup1\n      swap2\n      sub\n      swap1\n      return\n        /* \"contrato/KipuBank.sol\":5704:6322  function deposit() external payable {... */\n    tag_14:\n      tag_92\n      tag_93\n      jump\t// in\n    tag_92:\n      stop\n        /* \"contrato/KipuBank.sol\":723:755  uint256 public immutable bankCap */\n    tag_15:\n      callvalue\n      dup1\n      iszero\n      tag_94\n      jumpi\n      revert(0x00, 0x00)\n    tag_94:\n      pop\n      tag_95\n      tag_96\n      jump\t// in\n    tag_95:\n      mload(0x40)\n      tag_97\n      swap2\n      swap1\n      tag_43\n      jump\t// in\n    tag_97:\n      mload(0x40)\n      dup1\n      swap2\n      sub\n      swap1\n      return\n        /* \"contrato/KipuBank.sol\":1118:1147  uint256 public totalDeposited */\n    tag_16:\n      callvalue\n      dup1\n      iszero\n      tag_98\n      jumpi\n      revert(0x00, 0x00)\n    tag_98:\n      pop\n      tag_99\n      tag_100\n      jump\t// in\n    tag_99:\n      mload(0x40)\n      tag_101\n      swap2\n      swap1\n      tag_43\n      jump\t// in\n    tag_101:\n      mload(0x40)\n      dup1\n      swap2\n      sub\n      swap1\n      return\n        /* \"contrato/KipuBank.sol\":885:925  string public constant VERSION = \"1.0.0\" */\n    tag_17:\n      callvalue\n      dup1\n      iszero\n      tag_102\n      jumpi\n      revert(0x00, 0x00)\n    tag_102:\n      pop\n      tag_103\n      tag_104\n      jump\t// in\n    tag_103:\n      mload(0x40)\n      tag_105\n      swap2\n      swap1\n      tag_106\n      jump\t// in\n    tag_105:\n      mload(0x40)\n      dup1\n      swap2\n      sub\n      swap1\n      return\n        /* \"contrato/KipuBank.sol\":1841:1888  mapping(address => uint256) public userBalances */\n    tag_41:\n      mstore(0x20, 0x04)\n      dup1\n      0x00\n      mstore\n      keccak256(0x00, 0x40)\n      0x00\n      swap2\n      pop\n      swap1\n      pop\n      sload\n      dup2\n      jump\t// out\n        /* \"contrato/KipuBank.sol\":2285:2339  mapping(address => uint256) public userWithdrawalCount */\n    tag_47:\n      mstore(0x20, 0x06)\n      dup1\n      0x00\n      mstore\n      keccak256(0x00, 0x40)\n      0x00\n      swap2\n      pop\n      swap1\n      pop\n      sload\n      dup2\n      jump\t// out\n        /* \"contrato/KipuBank.sol\":6778:7579  function withdraw(uint256 amount) external hasDeposits {... */\n    tag_53:\n        /* \"contrato/KipuBank.sol\":4748:4749  0 */\n      0x00\n        /* \"contrato/KipuBank.sol\":4720:4732  userBalances */\n      0x04\n        /* \"contrato/KipuBank.sol\":4720:4744  userBalances[msg.sender] */\n      0x00\n        /* \"contrato/KipuBank.sol\":4733:4743  msg.sender */\n      caller\n        /* \"contrato/KipuBank.sol\":4720:4744  userBalances[msg.sender] */\n      0xffffffffffffffffffffffffffffffffffffffff\n      and\n      0xffffffffffffffffffffffffffffffffffffffff\n      and\n      dup2\n      mstore\n      0x20\n      add\n      swap1\n      dup2\n      mstore\n      0x20\n      add\n      0x00\n      keccak256\n      sload\n        /* \"contrato/KipuBank.sol\":4720:4749  userBalances[msg.sender] == 0 */\n      sub\n        /* \"contrato/KipuBank.sol\":4716:4803  if (userBalances[msg.sender] == 0) {... */\n      tag_108\n      jumpi\n        /* \"contrato/KipuBank.sol\":4773:4791  NoFundsDeposited() */\n      mload(0x40)\n      0x03def18400000000000000000000000000000000000000000000000000000000\n      dup2\n      mstore\n      0x04\n      add\n      mload(0x40)\n      dup1\n      swap2\n      sub\n      swap1\n      revert\n        /* \"contrato/KipuBank.sol\":4716:4803  if (userBalances[msg.sender] == 0) {... */\n    tag_108:\n        /* \"contrato/KipuBank.sol\":6877:6878  0 */\n      0x00\n        /* \"contrato/KipuBank.sol\":6867:6873  amount */\n      dup2\n        /* \"contrato/KipuBank.sol\":6867:6878  amount == 0 */\n      sub\n        /* \"contrato/KipuBank.sol\":6863:6947  if (amount == 0) {... */\n      tag_110\n      jumpi\n        /* \"contrato/KipuBank.sol\":6902:6935  WithdrawalMustBeGreaterThanZero() */\n      mload(0x40)\n      0xac3f137400000000000000000000000000000000000000000000000000000000\n      dup2\n      mstore\n      0x04\n      add\n      mload(0x40)\n      dup1\n      swap2\n      sub\n      swap1\n      revert\n        /* \"contrato/KipuBank.sol\":6863:6947  if (amount == 0) {... */\n    tag_110:\n        /* \"contrato/KipuBank.sol\":6980:6995  withdrawalLimit */\n      immutable(\"0xceebf77a833b30520287ddd9478ff51abbdffa30aa90a8d655dba0e8a79ce0c1\")\n        /* \"contrato/KipuBank.sol\":6971:6977  amount */\n      dup2\n        /* \"contrato/KipuBank.sol\":6971:6995  amount > withdrawalLimit */\n      gt\n        /* \"contrato/KipuBank.sol\":6967:7078  if (amount > withdrawalLimit) {... */\n      iszero\n      tag_111\n      jumpi\n        /* \"contrato/KipuBank.sol\":7042:7048  amount */\n      dup1\n        /* \"contrato/KipuBank.sol\":7050:7065  withdrawalLimit */\n      immutable(\"0xceebf77a833b30520287ddd9478ff51abbdffa30aa90a8d655dba0e8a79ce0c1\")\n        /* \"contrato/KipuBank.sol\":7019:7066  WithdrawalExceedsLimit(amount, withdrawalLimit) */\n      mload(0x40)\n      0x72dc226200000000000000000000000000000000000000000000000000000000\n      dup2\n      mstore\n      0x04\n      add\n      tag_112\n      swap3\n      swap2\n      swap1\n      tag_30\n      jump\t// in\n    tag_112:\n      mload(0x40)\n      dup1\n      swap2\n      sub\n      swap1\n      revert\n        /* \"contrato/KipuBank.sol\":6967:7078  if (amount > withdrawalLimit) {... */\n    tag_111:\n        /* \"contrato/KipuBank.sol\":7111:7123  userBalances */\n      0x04\n        /* \"contrato/KipuBank.sol\":7111:7135  userBalances[msg.sender] */\n      0x00\n        /* \"contrato/KipuBank.sol\":7124:7134  msg.sender */\n      caller\n        /* \"contrato/KipuBank.sol\":7111:7135  userBalances[msg.sender] */\n      0xffffffffffffffffffffffffffffffffffffffff\n      and\n      0xffffffffffffffffffffffffffffffffffffffff\n      and\n      dup2\n      mstore\n      0x20\n      add\n      swap1\n      dup2\n      mstore\n      0x20\n      add\n      0x00\n      keccak256\n      sload\n        /* \"contrato/KipuBank.sol\":7102:7108  amount */\n      dup2\n        /* \"contrato/KipuBank.sol\":7102:7135  amount > userBalances[msg.sender] */\n      gt\n        /* \"contrato/KipuBank.sol\":7098:7224  if (amount > userBalances[msg.sender]) {... */\n      iszero\n      tag_113\n      jumpi\n        /* \"contrato/KipuBank.sol\":7179:7185  amount */\n      dup1\n        /* \"contrato/KipuBank.sol\":7187:7199  userBalances */\n      0x04\n        /* \"contrato/KipuBank.sol\":7187:7211  userBalances[msg.sender] */\n      0x00\n        /* \"contrato/KipuBank.sol\":7200:7210  msg.sender */\n      caller\n        /* \"contrato/KipuBank.sol\":7187:7211  userBalances[msg.sender] */\n      0xffffffffffffffffffffffffffffffffffffffff\n      and\n      0xffffffffffffffffffffffffffffffffffffffff\n      and\n      dup2\n      mstore\n      0x20\n      add\n      swap1\n      dup2\n      mstore\n      0x20\n      add\n      0x00\n      keccak256\n      sload\n        /* \"contrato/KipuBank.sol\":7159:7212  InsufficientBalance(amount, userBalances[msg.sender]) */\n      mload(0x40)\n      0xcf47918100000000000000000000000000000000000000000000000000000000\n      dup2\n      mstore\n      0x04\n      add\n      tag_114\n      swap3\n      swap2\n      swap1\n      tag_30\n      jump\t// in\n    tag_114:\n      mload(0x40)\n      dup1\n      swap2\n      sub\n      swap1\n      revert\n        /* \"contrato/KipuBank.sol\":7098:7224  if (amount > userBalances[msg.sender]) {... */\n    tag_113:\n        /* \"contrato/KipuBank.sol\":7292:7298  amount */\n      dup1\n        /* \"contrato/KipuBank.sol\":7264:7276  userBalances */\n      0x04\n        /* \"contrato/KipuBank.sol\":7264:7288  userBalances[msg.sender] */\n      0x00\n        /* \"contrato/KipuBank.sol\":7277:7287  msg.sender */\n      caller\n        /* \"contrato/KipuBank.sol\":7264:7288  userBalances[msg.sender] */\n      0xffffffffffffffffffffffffffffffffffffffff\n      and\n      0xffffffffffffffffffffffffffffffffffffffff\n      and\n      dup2\n      mstore\n      0x20\n      add\n      swap1\n      dup2\n      mstore\n      0x20\n      add\n      0x00\n      keccak256\n      0x00\n        /* \"contrato/KipuBank.sol\":7264:7298  userBalances[msg.sender] -= amount */\n      dup3\n      dup3\n      sload\n      tag_115\n      swap2\n      swap1\n      tag_28\n      jump\t// in\n    tag_115:\n      swap3\n      pop\n      pop\n      dup2\n      swap1\n      sstore\n      pop\n        /* \"contrato/KipuBank.sol\":7327:7333  amount */\n      dup1\n        /* \"contrato/KipuBank.sol\":7309:7323  totalDeposited */\n      0x00\n      0x00\n        /* \"contrato/KipuBank.sol\":7309:7333  totalDeposited -= amount */\n      dup3\n      dup3\n      sload\n      tag_116\n      swap2\n      swap1\n      tag_28\n      jump\t// in\n    tag_116:\n      swap3\n      pop\n      pop\n      dup2\n      swap1\n      sstore\n      pop\n        /* \"contrato/KipuBank.sol\":7344:7360  totalWithdrawals */\n      0x02\n      0x00\n        /* \"contrato/KipuBank.sol\":7344:7362  totalWithdrawals++ */\n      dup2\n      sload\n      dup1\n      swap3\n      swap2\n      swap1\n      tag_117\n      swap1\n      tag_34\n      jump\t// in\n    tag_117:\n      swap2\n      swap1\n      pop\n      sstore\n      pop\n        /* \"contrato/KipuBank.sol\":7373:7392  userWithdrawalCount */\n      0x06\n        /* \"contrato/KipuBank.sol\":7373:7404  userWithdrawalCount[msg.sender] */\n      0x00\n        /* \"contrato/KipuBank.sol\":7393:7403  msg.sender */\n      caller\n        /* \"contrato/KipuBank.sol\":7373:7404  userWithdrawalCount[msg.sender] */\n      0xffffffffffffffffffffffffffffffffffffffff\n      and\n      0xffffffffffffffffffffffffffffffffffffffff\n      and\n      dup2\n      mstore\n      0x20\n      add\n      swap1\n      dup2\n      mstore\n      0x20\n      add\n      0x00\n      keccak256\n      0x00\n        /* \"contrato/KipuBank.sol\":7373:7406  userWithdrawalCount[msg.sender]++ */\n      dup2\n      sload\n      dup1\n      swap3\n      swap2\n      swap1\n      tag_118\n      swap1\n      tag_34\n      jump\t// in\n    tag_118:\n      swap2\n      swap1\n      pop\n      sstore\n      pop\n        /* \"contrato/KipuBank.sol\":7452:7485  _safeTransfer(msg.sender, amount) */\n      tag_119\n        /* \"contrato/KipuBank.sol\":7466:7476  msg.sender */\n      caller\n        /* \"contrato/KipuBank.sol\":7478:7484  amount */\n      dup3\n        /* \"contrato/KipuBank.sol\":7452:7465  _safeTransfer */\n      tag_120\n        /* \"contrato/KipuBank.sol\":7452:7485  _safeTransfer(msg.sender, amount) */\n      jump\t// in\n    tag_119:\n        /* \"contrato/KipuBank.sol\":7526:7536  msg.sender */\n      caller\n        /* \"contrato/KipuBank.sol\":7511:7571  WithdrawalMade(msg.sender, amount, userBalances[msg.sender]) */\n      0xffffffffffffffffffffffffffffffffffffffff\n      and\n      0x2d4d49c3e017b8235c908cbaa83a2431a08f3b950712696ece2088964fd399f0\n        /* \"contrato/KipuBank.sol\":7538:7544  amount */\n      dup3\n        /* \"contrato/KipuBank.sol\":7546:7558  userBalances */\n      0x04\n        /* \"contrato/KipuBank.sol\":7546:7570  userBalances[msg.sender] */\n      0x00\n        /* \"contrato/KipuBank.sol\":7559:7569  msg.sender */\n      caller\n        /* \"contrato/KipuBank.sol\":7546:7570  userBalances[msg.sender] */\n      0xffffffffffffffffffffffffffffffffffffffff\n      and\n      0xffffffffffffffffffffffffffffffffffffffff\n      and\n      dup2\n      mstore\n      0x20\n      add\n      swap1\n      dup2\n      mstore\n      0x20\n      add\n      0x00\n      keccak256\n      sload\n        /* \"contrato/KipuBank.sol\":7511:7571  WithdrawalMade(msg.sender, amount, userBalances[msg.sender]) */\n      mload(0x40)\n      tag_121\n      swap3\n      swap2\n      swap1\n      tag_30\n      jump\t// in\n    tag_121:\n      mload(0x40)\n      dup1\n      swap2\n      sub\n      swap1\n      log2\n        /* \"contrato/KipuBank.sol\":6778:7579  function withdraw(uint256 amount) external hasDeposits {... */\n      pop\n      jump\t// out\n        /* \"contrato/KipuBank.sol\":7889:8011  function getUserBalance(address user) external view returns (uint256 balance) {... */\n    tag_57:\n        /* \"contrato/KipuBank.sol\":7950:7965  uint256 balance */\n      0x00\n        /* \"contrato/KipuBank.sol\":7985:7997  userBalances */\n      0x04\n        /* \"contrato/KipuBank.sol\":7985:8003  userBalances[user] */\n      0x00\n        /* \"contrato/KipuBank.sol\":7998:8002  user */\n      dup4\n        /* \"contrato/KipuBank.sol\":7985:8003  userBalances[user] */\n      0xffffffffffffffffffffffffffffffffffffffff\n      and\n      0xffffffffffffffffffffffffffffffffffffffff\n      and\n      dup2\n      mstore\n      0x20\n      add\n      swap1\n      dup2\n      mstore\n      0x20\n      add\n      0x00\n      keccak256\n      sload\n        /* \"contrato/KipuBank.sol\":7978:8003  return userBalances[user] */\n      swap1\n      pop\n        /* \"contrato/KipuBank.sol\":7889:8011  function getUserBalance(address user) external view returns (uint256 balance) {... */\n      swap2\n      swap1\n      pop\n      jump\t// out\n        /* \"contrato/KipuBank.sol\":9386:9676  function getUserStats(address user) external view returns (... */\n    tag_62:\n        /* \"contrato/KipuBank.sol\":9455:9470  uint256 balance */\n      0x00\n        /* \"contrato/KipuBank.sol\":9481:9497  uint256 deposits */\n      0x00\n        /* \"contrato/KipuBank.sol\":9508:9527  uint256 withdrawals */\n      0x00\n        /* \"contrato/KipuBank.sol\":9556:9568  userBalances */\n      0x04\n        /* \"contrato/KipuBank.sol\":9556:9574  userBalances[user] */\n      0x00\n        /* \"contrato/KipuBank.sol\":9569:9573  user */\n      dup6\n        /* \"contrato/KipuBank.sol\":9556:9574  userBalances[user] */\n      0xffffffffffffffffffffffffffffffffffffffff\n      and\n      0xffffffffffffffffffffffffffffffffffffffff\n      and\n      dup2\n      mstore\n      0x20\n      add\n      swap1\n      dup2\n      mstore\n      0x20\n      add\n      0x00\n      keccak256\n      sload\n        /* \"contrato/KipuBank.sol\":9546:9574  balance = userBalances[user] */\n      swap3\n      pop\n        /* \"contrato/KipuBank.sol\":9596:9612  userDepositCount */\n      0x05\n        /* \"contrato/KipuBank.sol\":9596:9618  userDepositCount[user] */\n      0x00\n        /* \"contrato/KipuBank.sol\":9613:9617  user */\n      dup6\n        /* \"contrato/KipuBank.sol\":9596:9618  userDepositCount[user] */\n      0xffffffffffffffffffffffffffffffffffffffff\n      and\n      0xffffffffffffffffffffffffffffffffffffffff\n      and\n      dup2\n      mstore\n      0x20\n      add\n      swap1\n      dup2\n      mstore\n      0x20\n      add\n      0x00\n      keccak256\n      sload\n        /* \"contrato/KipuBank.sol\":9585:9618  deposits = userDepositCount[user] */\n      swap2\n      pop\n        /* \"contrato/KipuBank.sol\":9643:9662  userWithdrawalCount */\n      0x06\n        /* \"contrato/KipuBank.sol\":9643:9668  userWithdrawalCount[user] */\n      0x00\n        /* \"contrato/KipuBank.sol\":9663:9667  user */\n      dup6\n        /* \"contrato/KipuBank.sol\":9643:9668  userWithdrawalCount[user] */\n      0xffffffffffffffffffffffffffffffffffffffff\n      and\n      0xffffffffffffffffffffffffffffffffffffffff\n      and\n      dup2\n      mstore\n      0x20\n      add\n      swap1\n      dup2\n      mstore\n      0x20\n      add\n      0x00\n      keccak256\n      sload\n        /* \"contrato/KipuBank.sol\":9629:9668  withdrawals = userWithdrawalCount[user] */\n      swap1\n      pop\n        /* \"contrato/KipuBank.sol\":9386:9676  function getUserStats(address user) external view returns (... */\n      swap2\n      swap4\n      swap1\n      swap3\n      pop\n      jump\t// out\n        /* \"contrato/KipuBank.sol\":1449:1480  uint256 public totalWithdrawals */\n    tag_67:\n      sload(0x02)\n      dup2\n      jump\t// out\n        /* \"contrato/KipuBank.sol\":2064:2115  mapping(address => uint256) public userDepositCount */\n    tag_72:\n      mstore(0x20, 0x05)\n      dup1\n      0x00\n      mstore\n      keccak256(0x00, 0x40)\n      0x00\n      swap2\n      pop\n      swap1\n      pop\n      sload\n      dup2\n      jump\t// out\n        /* \"contrato/KipuBank.sol\":1287:1315  uint256 public totalDeposits */\n    tag_76:\n      sload(0x01)\n      dup2\n      jump\t// out\n        /* \"contrato/KipuBank.sol\":515:555  uint256 public immutable withdrawalLimit */\n    tag_80:\n      immutable(\"0xceebf77a833b30520287ddd9478ff51abbdffa30aa90a8d655dba0e8a79ce0c1\")\n      dup2\n      jump\t// out\n        /* \"contrato/KipuBank.sol\":1626:1646  address public owner */\n    tag_84:\n      0x03\n      0x00\n      swap1\n      sload\n      swap1\n      0x0100\n      exp\n      swap1\n      div\n      0xffffffffffffffffffffffffffffffffffffffff\n      and\n      dup2\n      jump\t// out\n        /* \"contrato/KipuBank.sol\":8424:8996  function getBankStats() external view returns (... */\n    tag_89:\n        /* \"contrato/KipuBank.sol\":8481:8504  uint256 _totalDeposited */\n      0x00\n        /* \"contrato/KipuBank.sol\":8515:8537  uint256 _totalDeposits */\n      0x00\n        /* \"contrato/KipuBank.sol\":8548:8573  uint256 _totalWithdrawals */\n      0x00\n        /* \"contrato/KipuBank.sol\":8584:8608  uint256 _bankUtilization */\n      0x00\n        /* \"contrato/KipuBank.sol\":8645:8659  totalDeposited */\n      sload(0x00)\n        /* \"contrato/KipuBank.sol\":8627:8659  _totalDeposited = totalDeposited */\n      swap4\n      pop\n        /* \"contrato/KipuBank.sol\":8687:8700  totalDeposits */\n      sload(0x01)\n        /* \"contrato/KipuBank.sol\":8670:8700  _totalDeposits = totalDeposits */\n      swap3\n      pop\n        /* \"contrato/KipuBank.sol\":8731:8747  totalWithdrawals */\n      sload(0x02)\n        /* \"contrato/KipuBank.sol\":8711:8747  _totalWithdrawals = totalWithdrawals */\n      swap2\n      pop\n        /* \"contrato/KipuBank.sol\":8853:8854  0 */\n      0x00\n        /* \"contrato/KipuBank.sol\":8843:8850  bankCap */\n      immutable(\"0xe4b1702d9298fee62dfeccc57d322a463ad55ca201256d01f62b45b2e1c21c10\")\n        /* \"contrato/KipuBank.sol\":8843:8854  bankCap > 0 */\n      gt\n        /* \"contrato/KipuBank.sol\":8839:8989  if (bankCap > 0) {... */\n      iszero\n      tag_125\n      jumpi\n        /* \"contrato/KipuBank.sol\":8917:8924  bankCap */\n      immutable(\"0xe4b1702d9298fee62dfeccc57d322a463ad55ca201256d01f62b45b2e1c21c10\")\n        /* \"contrato/KipuBank.sol\":8908:8913  10000 */\n      0x2710\n        /* \"contrato/KipuBank.sol\":8891:8905  totalDeposited */\n      sload(0x00)\n        /* \"contrato/KipuBank.sol\":8891:8913  totalDeposited * 10000 */\n      tag_126\n      swap2\n      swap1\n      tag_127\n      jump\t// in\n    tag_126:\n        /* \"contrato/KipuBank.sol\":8890:8924  (totalDeposited * 10000) / bankCap */\n      tag_128\n      swap2\n      swap1\n      tag_129\n      jump\t// in\n    tag_128:\n        /* \"contrato/KipuBank.sol\":8871:8924  _bankUtilization = (totalDeposited * 10000) / bankCap */\n      swap1\n      pop\n        /* \"contrato/KipuBank.sol\":8839:8989  if (bankCap > 0) {... */\n      jump(tag_130)\n    tag_125:\n        /* \"contrato/KipuBank.sol\":8976:8977  0 */\n      0x00\n        /* \"contrato/KipuBank.sol\":8957:8977  _bankUtilization = 0 */\n      swap1\n      pop\n        /* \"contrato/KipuBank.sol\":8839:8989  if (bankCap > 0) {... */\n    tag_130:\n        /* \"contrato/KipuBank.sol\":8424:8996  function getBankStats() external view returns (... */\n      swap1\n      swap2\n      swap3\n      swap4\n      jump\t// out\n        /* \"contrato/KipuBank.sol\":5704:6322  function deposit() external payable {... */\n    tag_93:\n        /* \"contrato/KipuBank.sol\":5787:5788  0 */\n      0x00\n        /* \"contrato/KipuBank.sol\":5774:5783  msg.value */\n      callvalue\n        /* \"contrato/KipuBank.sol\":5774:5788  msg.value == 0 */\n      sub\n        /* \"contrato/KipuBank.sol\":5770:5854  if (msg.value == 0) {... */\n      tag_132\n      jumpi\n        /* \"contrato/KipuBank.sol\":5812:5842  DepositMustBeGreaterThanZero() */\n      mload(0x40)\n      0x836971dc00000000000000000000000000000000000000000000000000000000\n      dup2\n      mstore\n      0x04\n      add\n      mload(0x40)\n      dup1\n      swap2\n      sub\n      swap1\n      revert\n        /* \"contrato/KipuBank.sol\":5770:5854  if (msg.value == 0) {... */\n    tag_132:\n        /* \"contrato/KipuBank.sol\":5907:5914  bankCap */\n      immutable(\"0xe4b1702d9298fee62dfeccc57d322a463ad55ca201256d01f62b45b2e1c21c10\")\n        /* \"contrato/KipuBank.sol\":5895:5904  msg.value */\n      callvalue\n        /* \"contrato/KipuBank.sol\":5878:5892  totalDeposited */\n      sload(0x00)\n        /* \"contrato/KipuBank.sol\":5878:5904  totalDeposited + msg.value */\n      tag_133\n      swap2\n      swap1\n      tag_25\n      jump\t// in\n    tag_133:\n        /* \"contrato/KipuBank.sol\":5878:5914  totalDeposited + msg.value > bankCap */\n      gt\n        /* \"contrato/KipuBank.sol\":5874:6008  if (totalDeposited + msg.value > bankCap) {... */\n      iszero\n      tag_134\n      jumpi\n        /* \"contrato/KipuBank.sol\":5960:5969  msg.value */\n      callvalue\n        /* \"contrato/KipuBank.sol\":5981:5995  totalDeposited */\n      sload(0x00)\n        /* \"contrato/KipuBank.sol\":5971:5978  bankCap */\n      immutable(\"0xe4b1702d9298fee62dfeccc57d322a463ad55ca201256d01f62b45b2e1c21c10\")\n        /* \"contrato/KipuBank.sol\":5971:5995  bankCap - totalDeposited */\n      tag_135\n      swap2\n      swap1\n      tag_28\n      jump\t// in\n    tag_135:\n        /* \"contrato/KipuBank.sol\":5938:5996  DepositExceedsBankCap(msg.value, bankCap - totalDeposited) */\n      mload(0x40)\n      0x0aac9bf800000000000000000000000000000000000000000000000000000000\n      dup2\n      mstore\n      0x04\n      add\n      tag_136\n      swap3\n      swap2\n      swap1\n      tag_30\n      jump\t// in\n    tag_136:\n      mload(0x40)\n      dup1\n      swap2\n      sub\n      swap1\n      revert\n        /* \"contrato/KipuBank.sol\":5874:6008  if (totalDeposited + msg.value > bankCap) {... */\n    tag_134:\n        /* \"contrato/KipuBank.sol\":6076:6085  msg.value */\n      callvalue\n        /* \"contrato/KipuBank.sol\":6048:6060  userBalances */\n      0x04\n        /* \"contrato/KipuBank.sol\":6048:6072  userBalances[msg.sender] */\n      0x00\n        /* \"contrato/KipuBank.sol\":6061:6071  msg.sender */\n      caller\n        /* \"contrato/KipuBank.sol\":6048:6072  userBalances[msg.sender] */\n      0xffffffffffffffffffffffffffffffffffffffff\n      and\n      0xffffffffffffffffffffffffffffffffffffffff\n      and\n      dup2\n      mstore\n      0x20\n      add\n      swap1\n      dup2\n      mstore\n      0x20\n      add\n      0x00\n      keccak256\n      0x00\n        /* \"contrato/KipuBank.sol\":6048:6085  userBalances[msg.sender] += msg.value */\n      dup3\n      dup3\n      sload\n      tag_137\n      swap2\n      swap1\n      tag_25\n      jump\t// in\n    tag_137:\n      swap3\n      pop\n      pop\n      dup2\n      swap1\n      sstore\n      pop\n        /* \"contrato/KipuBank.sol\":6114:6123  msg.value */\n      callvalue\n        /* \"contrato/KipuBank.sol\":6096:6110  totalDeposited */\n      0x00\n      0x00\n        /* \"contrato/KipuBank.sol\":6096:6123  totalDeposited += msg.value */\n      dup3\n      dup3\n      sload\n      tag_138\n      swap2\n      swap1\n      tag_25\n      jump\t// in\n    tag_138:\n      swap3\n      pop\n      pop\n      dup2\n      swap1\n      sstore\n      pop\n        /* \"contrato/KipuBank.sol\":6134:6147  totalDeposits */\n      0x01\n      0x00\n        /* \"contrato/KipuBank.sol\":6134:6149  totalDeposits++ */\n      dup2\n      sload\n      dup1\n      swap3\n      swap2\n      swap1\n      tag_139\n      swap1\n      tag_34\n      jump\t// in\n    tag_139:\n      swap2\n      swap1\n      pop\n      sstore\n      pop\n        /* \"contrato/KipuBank.sol\":6160:6176  userDepositCount */\n      0x05\n        /* \"contrato/KipuBank.sol\":6160:6188  userDepositCount[msg.sender] */\n      0x00\n        /* \"contrato/KipuBank.sol\":6177:6187  msg.sender */\n      caller\n        /* \"contrato/KipuBank.sol\":6160:6188  userDepositCount[msg.sender] */\n      0xffffffffffffffffffffffffffffffffffffffff\n      and\n      0xffffffffffffffffffffffffffffffffffffffff\n      and\n      dup2\n      mstore\n      0x20\n      add\n      swap1\n      dup2\n      mstore\n      0x20\n      add\n      0x00\n      keccak256\n      0x00\n        /* \"contrato/KipuBank.sol\":6160:6190  userDepositCount[msg.sender]++ */\n      dup2\n      sload\n      dup1\n      swap3\n      swap2\n      swap1\n      tag_140\n      swap1\n      tag_34\n      jump\t// in\n    tag_140:\n      swap2\n      swap1\n      pop\n      sstore\n      pop\n        /* \"contrato/KipuBank.sol\":6266:6276  msg.sender */\n      caller\n        /* \"contrato/KipuBank.sol\":6254:6314  DepositMade(msg.sender, msg.value, userBalances[msg.sender]) */\n      0xffffffffffffffffffffffffffffffffffffffff\n      and\n      0x0b05f0d1cd0819f155b8a61f60baf7767c1ee49d04aeaab701df236140eb93f9\n        /* \"contrato/KipuBank.sol\":6278:6287  msg.value */\n      callvalue\n        /* \"contrato/KipuBank.sol\":6289:6301  userBalances */\n      0x04\n        /* \"contrato/KipuBank.sol\":6289:6313  userBalances[msg.sender] */\n      0x00\n        /* \"contrato/KipuBank.sol\":6302:6312  msg.sender */\n      caller\n        /* \"contrato/KipuBank.sol\":6289:6313  userBalances[msg.sender] */\n      0xffffffffffffffffffffffffffffffffffffffff\n      and\n      0xffffffffffffffffffffffffffffffffffffffff\n      and\n      dup2\n      mstore\n      0x20\n      add\n      swap1\n      dup2\n      mstore\n      0x20\n      add\n      0x00\n      keccak256\n      sload\n        /* \"contrato/KipuBank.sol\":6254:6314  DepositMade(msg.sender, msg.value, userBalances[msg.sender]) */\n      mload(0x40)\n      tag_141\n      swap3\n      swap2\n      swap1\n      tag_30\n      jump\t// in\n    tag_141:\n      mload(0x40)\n      dup1\n      swap2\n      sub\n      swap1\n      log2\n        /* \"contrato/KipuBank.sol\":5704:6322  function deposit() external payable {... */\n      jump\t// out\n        /* \"contrato/KipuBank.sol\":723:755  uint256 public immutable bankCap */\n    tag_96:\n      immutable(\"0xe4b1702d9298fee62dfeccc57d322a463ad55ca201256d01f62b45b2e1c21c10\")\n      dup2\n      jump\t// out\n        /* \"contrato/KipuBank.sol\":1118:1147  uint256 public totalDeposited */\n    tag_100:\n      sload(0x00)\n      dup2\n      jump\t// out\n        /* \"contrato/KipuBank.sol\":885:925  string public constant VERSION = \"1.0.0\" */\n    tag_104:\n      mload(0x40)\n      dup1\n      0x40\n      add\n      0x40\n      mstore\n      dup1\n      0x05\n      dup2\n      mstore\n      0x20\n      add\n      0x312e302e30000000000000000000000000000000000000000000000000000000\n      dup2\n      mstore\n      pop\n      dup2\n      jump\t// out\n        /* \"contrato/KipuBank.sol\":10008:10214  function _safeTransfer(address to, uint256 amount) private {... */\n    tag_120:\n        /* \"contrato/KipuBank.sol\":10079:10091  bool success */\n      0x00\n        /* \"contrato/KipuBank.sol\":10105:10107  to */\n      dup3\n        /* \"contrato/KipuBank.sol\":10097:10113  payable(to).call */\n      0xffffffffffffffffffffffffffffffffffffffff\n      and\n        /* \"contrato/KipuBank.sol\":10121:10127  amount */\n      dup3\n        /* \"contrato/KipuBank.sol\":10097:10132  payable(to).call{value: amount}(\"\") */\n      mload(0x40)\n      tag_143\n      swap1\n      tag_144\n      jump\t// in\n    tag_143:\n      0x00\n      mload(0x40)\n      dup1\n      dup4\n      sub\n      dup2\n      dup6\n      dup8\n      gas\n      call\n      swap3\n      pop\n      pop\n      pop\n      returndatasize\n      dup1\n      0x00\n      dup2\n      eq\n      tag_147\n      jumpi\n      mload(0x40)\n      swap2\n      pop\n      and(add(returndatasize, 0x3f), not(0x1f))\n      dup3\n      add\n      0x40\n      mstore\n      returndatasize\n      dup3\n      mstore\n      returndatasize\n      0x00\n      0x20\n      dup5\n      add\n      returndatacopy\n      jump(tag_146)\n    tag_147:\n      0x60\n      swap2\n      pop\n    tag_146:\n      pop\n        /* \"contrato/KipuBank.sol\":10078:10132  (bool success, ) = payable(to).call{value: amount}(\"\") */\n      pop\n      swap1\n      pop\n        /* \"contrato/KipuBank.sol\":10148:10155  success */\n      dup1\n        /* \"contrato/KipuBank.sol\":10143:10207  if (!success) {... */\n      tag_148\n      jumpi\n        /* \"contrato/KipuBank.sol\":10179:10195  TransferFailed() */\n      mload(0x40)\n      0x90b8ec1800000000000000000000000000000000000000000000000000000000\n      dup2\n      mstore\n      0x04\n      add\n      mload(0x40)\n      dup1\n      swap2\n      sub\n      swap1\n      revert\n        /* \"contrato/KipuBank.sol\":10143:10207  if (!success) {... */\n    tag_148:\n        /* \"contrato/KipuBank.sol\":10067:10214  {... */\n      pop\n        /* \"contrato/KipuBank.sol\":10008:10214  function _safeTransfer(address to, uint256 amount) private {... */\n      pop\n      pop\n      jump\t// out\n        /* \"#utility.yul\":7:84   */\n    tag_149:\n        /* \"#utility.yul\":44:51   */\n      0x00\n        /* \"#utility.yul\":73:78   */\n      dup2\n        /* \"#utility.yul\":62:78   */\n      swap1\n      pop\n        /* \"#utility.yul\":7:84   */\n      swap2\n      swap1\n      pop\n      jump\t// out\n        /* \"#utility.yul\":90:270   */\n    tag_150:\n        /* \"#utility.yul\":138:215   */\n      0x4e487b7100000000000000000000000000000000000000000000000000000000\n        /* \"#utility.yul\":135:136   */\n      0x00\n        /* \"#utility.yul\":128:216   */\n      mstore\n        /* \"#utility.yul\":235:239   */\n      0x11\n        /* \"#utility.yul\":232:233   */\n      0x04\n        /* \"#utility.yul\":225:240   */\n      mstore\n        /* \"#utility.yul\":259:263   */\n      0x24\n        /* \"#utility.yul\":256:257   */\n      0x00\n        /* \"#utility.yul\":249:264   */\n      revert\n        /* \"#utility.yul\":276:467   */\n    tag_25:\n        /* \"#utility.yul\":316:319   */\n      0x00\n        /* \"#utility.yul\":335:355   */\n      tag_175\n        /* \"#utility.yul\":353:354   */\n      dup3\n        /* \"#utility.yul\":335:355   */\n      tag_149\n      jump\t// in\n    tag_175:\n        /* \"#utility.yul\":330:355   */\n      swap2\n      pop\n        /* \"#utility.yul\":369:389   */\n      tag_176\n        /* \"#utility.yul\":387:388   */\n      dup4\n        /* \"#utility.yul\":369:389   */\n      tag_149\n      jump\t// in\n    tag_176:\n        /* \"#utility.yul\":364:389   */\n      swap3\n      pop\n        /* \"#utility.yul\":412:413   */\n      dup3\n        /* \"#utility.yul\":409:410   */\n      dup3\n        /* \"#utility.yul\":405:414   */\n      add\n        /* \"#utility.yul\":398:414   */\n      swap1\n      pop\n        /* \"#utility.yul\":433:436   */\n      dup1\n        /* \"#utility.yul\":430:431   */\n      dup3\n        /* \"#utility.yul\":427:437   */\n      gt\n        /* \"#utility.yul\":424:460   */\n      iszero\n      tag_177\n      jumpi\n        /* \"#utility.yul\":440:458   */\n      tag_178\n      tag_150\n      jump\t// in\n    tag_178:\n        /* \"#utility.yul\":424:460   */\n    tag_177:\n        /* \"#utility.yul\":276:467   */\n      swap3\n      swap2\n      pop\n      pop\n      jump\t// out\n        /* \"#utility.yul\":473:667   */\n    tag_28:\n        /* \"#utility.yul\":513:517   */\n      0x00\n        /* \"#utility.yul\":533:553   */\n      tag_180\n        /* \"#utility.yul\":551:552   */\n      dup3\n        /* \"#utility.yul\":533:553   */\n      tag_149\n      jump\t// in\n    tag_180:\n        /* \"#utility.yul\":528:553   */\n      swap2\n      pop\n        /* \"#utility.yul\":567:587   */\n      tag_181\n        /* \"#utility.yul\":585:586   */\n      dup4\n        /* \"#utility.yul\":567:587   */\n      tag_149\n      jump\t// in\n    tag_181:\n        /* \"#utility.yul\":562:587   */\n      swap3\n      pop\n        /* \"#utility.yul\":611:612   */\n      dup3\n        /* \"#utility.yul\":608:609   */\n      dup3\n        /* \"#utility.yul\":604:613   */\n      sub\n        /* \"#utility.yul\":596:613   */\n      swap1\n      pop\n        /* \"#utility.yul\":635:636   */\n      dup2\n        /* \"#utility.yul\":629:633   */\n      dup2\n        /* \"#utility.yul\":626:637   */\n      gt\n        /* \"#utility.yul\":623:660   */\n      iszero\n      tag_182\n      jumpi\n        /* \"#utility.yul\":640:658   */\n      tag_183\n      tag_150\n      jump\t// in\n    tag_183:\n        /* \"#utility.yul\":623:660   */\n    tag_182:\n        /* \"#utility.yul\":473:667   */\n      swap3\n      swap2\n      pop\n      pop\n      jump\t// out\n        /* \"#utility.yul\":673:791   */\n    tag_151:\n        /* \"#utility.yul\":760:784   */\n      tag_185\n        /* \"#utility.yul\":778:783   */\n      dup2\n        /* \"#utility.yul\":760:784   */\n      tag_149\n      jump\t// in\n    tag_185:\n        /* \"#utility.yul\":755:758   */\n      dup3\n        /* \"#utility.yul\":748:785   */\n      mstore\n        /* \"#utility.yul\":673:791   */\n      pop\n      pop\n      jump\t// out\n        /* \"#utility.yul\":797:1129   */\n    tag_30:\n        /* \"#utility.yul\":918:922   */\n      0x00\n        /* \"#utility.yul\":956:958   */\n      0x40\n        /* \"#utility.yul\":945:954   */\n      dup3\n        /* \"#utility.yul\":941:959   */\n      add\n        /* \"#utility.yul\":933:959   */\n      swap1\n      pop\n        /* \"#utility.yul\":969:1040   */\n      tag_187\n        /* \"#utility.yul\":1037:1038   */\n      0x00\n        /* \"#utility.yul\":1026:1035   */\n      dup4\n        /* \"#utility.yul\":1022:1039   */\n      add\n        /* \"#utility.yul\":1013:1019   */\n      dup6\n        /* \"#utility.yul\":969:1040   */\n      tag_151\n      jump\t// in\n    tag_187:\n        /* \"#utility.yul\":1050:1122   */\n      tag_188\n        /* \"#utility.yul\":1118:1120   */\n      0x20\n        /* \"#utility.yul\":1107:1116   */\n      dup4\n        /* \"#utility.yul\":1103:1121   */\n      add\n        /* \"#utility.yul\":1094:1100   */\n      dup5\n        /* \"#utility.yul\":1050:1122   */\n      tag_151\n      jump\t// in\n    tag_188:\n        /* \"#utility.yul\":797:1129   */\n      swap4\n      swap3\n      pop\n      pop\n      pop\n      jump\t// out\n        /* \"#utility.yul\":1135:1368   */\n    tag_34:\n        /* \"#utility.yul\":1174:1177   */\n      0x00\n        /* \"#utility.yul\":1197:1221   */\n      tag_190\n        /* \"#utility.yul\":1215:1220   */\n      dup3\n        /* \"#utility.yul\":1197:1221   */\n      tag_149\n      jump\t// in\n    tag_190:\n        /* \"#utility.yul\":1188:1221   */\n      swap2\n      pop\n        /* \"#utility.yul\":1243:1309   */\n      0xffffffffffffffffffffffffffffffffffffffffffffffffffffffffffffffff\n        /* \"#utility.yul\":1236:1241   */\n      dup3\n        /* \"#utility.yul\":1233:1310   */\n      sub\n        /* \"#utility.yul\":1230:1333   */\n      tag_191\n      jumpi\n        /* \"#utility.yul\":1313:1331   */\n      tag_192\n      tag_150\n      jump\t// in\n    tag_192:\n        /* \"#utility.yul\":1230:1333   */\n    tag_191:\n        /* \"#utility.yul\":1360:1361   */\n      0x01\n        /* \"#utility.yul\":1353:1358   */\n      dup3\n        /* \"#utility.yul\":1349:1362   */\n      add\n        /* \"#utility.yul\":1342:1362   */\n      swap1\n      pop\n        /* \"#utility.yul\":1135:1368   */\n      swap2\n      swap1\n      pop\n      jump\t// out\n        /* \"#utility.yul\":1455:1572   */\n    tag_153:\n        /* \"#utility.yul\":1564:1565   */\n      0x00\n        /* \"#utility.yul\":1561:1562   */\n      0x00\n        /* \"#utility.yul\":1554:1566   */\n      revert\n        /* \"#utility.yul\":1701:1827   */\n    tag_155:\n        /* \"#utility.yul\":1738:1745   */\n      0x00\n        /* \"#utility.yul\":1778:1820   */\n      0xffffffffffffffffffffffffffffffffffffffff\n        /* \"#utility.yul\":1771:1776   */\n      dup3\n        /* \"#utility.yul\":1767:1821   */\n      and\n        /* \"#utility.yul\":1756:1821   */\n      swap1\n      pop\n        /* \"#utility.yul\":1701:1827   */\n      swap2\n      swap1\n      pop\n      jump\t// out\n        /* \"#utility.yul\":1833:1929   */\n    tag_156:\n        /* \"#utility.yul\":1870:1877   */\n      0x00\n        /* \"#utility.yul\":1899:1923   */\n      tag_198\n        /* \"#utility.yul\":1917:1922   */\n      dup3\n        /* \"#utility.yul\":1899:1923   */\n      tag_155\n      jump\t// in\n    tag_198:\n        /* \"#utility.yul\":1888:1923   */\n      swap1\n      pop\n        /* \"#utility.yul\":1833:1929   */\n      swap2\n      swap1\n      pop\n      jump\t// out\n        /* \"#utility.yul\":1935:2057   */\n    tag_157:\n        /* \"#utility.yul\":2008:2032   */\n      tag_200\n        /* \"#utility.yul\":2026:2031   */\n      dup2\n        /* \"#utility.yul\":2008:2032   */\n      tag_156\n      jump\t// in\n    tag_200:\n        /* \"#utility.yul\":2001:2006   */\n      dup2\n        /* \"#utility.yul\":1998:2033   */\n      eq\n        /* \"#utility.yul\":1988:2051   */\n      tag_201\n      jumpi\n        /* \"#utility.yul\":2047:2048   */\n      0x00\n        /* \"#utility.yul\":2044:2045   */\n      0x00\n        /* \"#utility.yul\":2037:2049   */\n      revert\n        /* \"#utility.yul\":1988:2051   */\n    tag_201:\n        /* \"#utility.yul\":1935:2057   */\n      pop\n      jump\t// out\n        /* \"#utility.yul\":2063:2202   */\n    tag_158:\n        /* \"#utility.yul\":2109:2114   */\n      0x00\n        /* \"#utility.yul\":2147:2153   */\n      dup2\n        /* \"#utility.yul\":2134:2154   */\n      calldataload\n        /* \"#utility.yul\":2125:2154   */\n      swap1\n      pop\n        /* \"#utility.yul\":2163:2196   */\n      tag_203\n        /* \"#utility.yul\":2190:2195   */\n      dup2\n        /* \"#utility.yul\":2163:2196   */\n      tag_157\n      jump\t// in\n    tag_203:\n        /* \"#utility.yul\":2063:2202   */\n      swap3\n      swap2\n      pop\n      pop\n      jump\t// out\n        /* \"#utility.yul\":2208:2537   */\n    tag_40:\n        /* \"#utility.yul\":2267:2273   */\n      0x00\n        /* \"#utility.yul\":2316:2318   */\n      0x20\n        /* \"#utility.yul\":2304:2313   */\n      dup3\n        /* \"#utility.yul\":2295:2302   */\n      dup5\n        /* \"#utility.yul\":2291:2314   */\n      sub\n        /* \"#utility.yul\":2287:2319   */\n      slt\n        /* \"#utility.yul\":2284:2403   */\n      iszero\n      tag_205\n      jumpi\n        /* \"#utility.yul\":2322:2401   */\n      tag_206\n      tag_153\n      jump\t// in\n    tag_206:\n        /* \"#utility.yul\":2284:2403   */\n    tag_205:\n        /* \"#utility.yul\":2442:2443   */\n      0x00\n        /* \"#utility.yul\":2467:2520   */\n      tag_207\n        /* \"#utility.yul\":2512:2519   */\n      dup5\n        /* \"#utility.yul\":2503:2509   */\n      dup3\n        /* \"#utility.yul\":2492:2501   */\n      dup6\n        /* \"#utility.yul\":2488:2510   */\n      add\n        /* \"#utility.yul\":2467:2520   */\n      tag_158\n      jump\t// in\n    tag_207:\n        /* \"#utility.yul\":2457:2520   */\n      swap2\n      pop\n        /* \"#utility.yul\":2413:2530   */\n      pop\n        /* \"#utility.yul\":2208:2537   */\n      swap3\n      swap2\n      pop\n      pop\n      jump\t// out\n        /* \"#utility.yul\":2543:2765   */\n    tag_43:\n        /* \"#utility.yul\":2636:2640   */\n      0x00\n        /* \"#utility.yul\":2674:2676   */\n      0x20\n        /* \"#utility.yul\":2663:2672   */\n      dup3\n        /* \"#utility.yul\":2659:2677   */\n      add\n        /* \"#utility.yul\":2651:2677   */\n      swap1\n      pop\n        /* \"#utility.yul\":2687:2758   */\n      tag_209\n        /* \"#utility.yul\":2755:2756   */\n      0x00\n        /* \"#utility.yul\":2744:2753   */\n      dup4\n        /* \"#utility.yul\":2740:2757   */\n      add\n        /* \"#utility.yul\":2731:2737   */\n      dup5\n        /* \"#utility.yul\":2687:2758   */\n      tag_151\n      jump\t// in\n    tag_209:\n        /* \"#utility.yul\":2543:2765   */\n      swap3\n      swap2\n      pop\n      pop\n      jump\t// out\n        /* \"#utility.yul\":2771:2893   */\n    tag_159:\n        /* \"#utility.yul\":2844:2868   */\n      tag_211\n        /* \"#utility.yul\":2862:2867   */\n      dup2\n        /* \"#utility.yul\":2844:2868   */\n      tag_149\n      jump\t// in\n    tag_211:\n        /* \"#utility.yul\":2837:2842   */\n      dup2\n        /* \"#utility.yul\":2834:2869   */\n      eq\n        /* \"#utility.yul\":2824:2887   */\n      tag_212\n      jumpi\n        /* \"#utility.yul\":2883:2884   */\n      0x00\n        /* \"#utility.yul\":2880:2881   */\n      0x00\n        /* \"#utility.yul\":2873:2885   */\n      revert\n        /* \"#utility.yul\":2824:2887   */\n    tag_212:\n        /* \"#utility.yul\":2771:2893   */\n      pop\n      jump\t// out\n        /* \"#utility.yul\":2899:3038   */\n    tag_160:\n        /* \"#utility.yul\":2945:2950   */\n      0x00\n        /* \"#utility.yul\":2983:2989   */\n      dup2\n        /* \"#utility.yul\":2970:2990   */\n      calldataload\n        /* \"#utility.yul\":2961:2990   */\n      swap1\n      pop\n        /* \"#utility.yul\":2999:3032   */\n      tag_214\n        /* \"#utility.yul\":3026:3031   */\n      dup2\n        /* \"#utility.yul\":2999:3032   */\n      tag_159\n      jump\t// in\n    tag_214:\n        /* \"#utility.yul\":2899:3038   */\n      swap3\n      swap2\n      pop\n      pop\n      jump\t// out\n        /* \"#utility.yul\":3044:3373   */\n    tag_52:\n        /* \"#utility.yul\":3103:3109   */\n      0x00\n        /* \"#utility.yul\":3152:3154   */\n      0x20\n        /* \"#utility.yul\":3140:3149   */\n      dup3\n        /* \"#utility.yul\":3131:3138   */\n      dup5\n        /* \"#utility.yul\":3127:3150   */\n      sub\n        /* \"#utility.yul\":3123:3155   */\n      slt\n        /* \"#utility.yul\":3120:3239   */\n      iszero\n      tag_216\n      jumpi\n        /* \"#utility.yul\":3158:3237   */\n      tag_217\n      tag_153\n      jump\t// in\n    tag_217:\n        /* \"#utility.yul\":3120:3239   */\n    tag_216:\n        /* \"#utility.yul\":3278:3279   */\n      0x00\n        /* \"#utility.yul\":3303:3356   */\n      tag_218\n        /* \"#utility.yul\":3348:3355   */\n      dup5\n        /* \"#utility.yul\":3339:3345   */\n      dup3\n        /* \"#utility.yul\":3328:3337   */\n      dup6\n        /* \"#utility.yul\":3324:3346   */\n      add\n        /* \"#utility.yul\":3303:3356   */\n      tag_160\n      jump\t// in\n    tag_218:\n        /* \"#utility.yul\":3293:3356   */\n      swap2\n      pop\n        /* \"#utility.yul\":3249:3366   */\n      pop\n        /* \"#utility.yul\":3044:3373   */\n      swap3\n      swap2\n      pop\n      pop\n      jump\t// out\n        /* \"#utility.yul\":3379:3821   */\n    tag_64:\n        /* \"#utility.yul\":3528:3532   */\n      0x00\n        /* \"#utility.yul\":3566:3568   */\n      0x60\n        /* \"#utility.yul\":3555:3564   */\n      dup3\n        /* \"#utility.yul\":3551:3569   */\n      add\n        /* \"#utility.yul\":3543:3569   */\n      swap1\n      pop\n        /* \"#utility.yul\":3579:3650   */\n      tag_220\n        /* \"#utility.yul\":3647:3648   */\n      0x00\n        /* \"#utility.yul\":3636:3645   */\n      dup4\n        /* \"#utility.yul\":3632:3649   */\n      add\n        /* \"#utility.yul\":3623:3629   */\n      dup7\n        /* \"#utility.yul\":3579:3650   */\n      tag_151\n      jump\t// in\n    tag_220:\n        /* \"#utility.yul\":3660:3732   */\n      tag_221\n        /* \"#utility.yul\":3728:3730   */\n      0x20\n        /* \"#utility.yul\":3717:3726   */\n      dup4\n        /* \"#utility.yul\":3713:3731   */\n      add\n        /* \"#utility.yul\":3704:3710   */\n      dup6\n        /* \"#utility.yul\":3660:3732   */\n      tag_151\n      jump\t// in\n    tag_221:\n        /* \"#utility.yul\":3742:3814   */\n      tag_222\n        /* \"#utility.yul\":3810:3812   */\n      0x40\n        /* \"#utility.yul\":3799:3808   */\n      dup4\n        /* \"#utility.yul\":3795:3813   */\n      add\n        /* \"#utility.yul\":3786:3792   */\n      dup5\n        /* \"#utility.yul\":3742:3814   */\n      tag_151\n      jump\t// in\n    tag_222:\n        /* \"#utility.yul\":3379:3821   */\n      swap5\n      swap4\n      pop\n      pop\n      pop\n      pop\n      jump\t// out\n        /* \"#utility.yul\":3827:3945   */\n    tag_161:\n        /* \"#utility.yul\":3914:3938   */\n      tag_224\n        /* \"#utility.yul\":3932:3937   */\n      dup2\n        /* \"#utility.yul\":3914:3938   */\n      tag_156\n      jump\t// in\n    tag_224:\n        /* \"#utility.yul\":3909:3912   */\n      dup3\n        /* \"#utility.yul\":3902:3939   */\n      mstore\n        /* \"#utility.yul\":3827:3945   */\n      pop\n      pop\n      jump\t// out\n        /* \"#utility.yul\":3951:4173   */\n    tag_86:\n        /* \"#utility.yul\":4044:4048   */\n      0x00\n        /* \"#utility.yul\":4082:4084   */\n      0x20\n        /* \"#utility.yul\":4071:4080   */\n      dup3\n        /* \"#utility.yul\":4067:4085   */\n      add\n        /* \"#utility.yul\":4059:4085   */\n      swap1\n      pop\n        /* \"#utility.yul\":4095:4166   */\n      tag_226\n        /* \"#utility.yul\":4163:4164   */\n      0x00\n        /* \"#utility.yul\":4152:4161   */\n      dup4\n        /* \"#utility.yul\":4148:4165   */\n      add\n        /* \"#utility.yul\":4139:4145   */\n      dup5\n        /* \"#utility.yul\":4095:4166   */\n      tag_161\n      jump\t// in\n    tag_226:\n        /* \"#utility.yul\":3951:4173   */\n      swap3\n      swap2\n      pop\n      pop\n      jump\t// out\n        /* \"#utility.yul\":4179:4732   */\n    tag_91:\n        /* \"#utility.yul\":4356:4360   */\n      0x00\n        /* \"#utility.yul\":4394:4397   */\n      0x80\n        /* \"#utility.yul\":4383:4392   */\n      dup3\n        /* \"#utility.yul\":4379:4398   */\n      add\n        /* \"#utility.yul\":4371:4398   */\n      swap1\n      pop\n        /* \"#utility.yul\":4408:4479   */\n      tag_228\n        /* \"#utility.yul\":4476:4477   */\n      0x00\n        /* \"#utility.yul\":4465:4474   */\n      dup4\n        /* \"#utility.yul\":4461:4478   */\n      add\n        /* \"#utility.yul\":4452:4458   */\n      dup8\n        /* \"#utility.yul\":4408:4479   */\n      tag_151\n      jump\t// in\n    tag_228:\n        /* \"#utility.yul\":4489:4561   */\n      tag_229\n        /* \"#utility.yul\":4557:4559   */\n      0x20\n        /* \"#utility.yul\":4546:4555   */\n      dup4\n        /* \"#utility.yul\":4542:4560   */\n      add\n        /* \"#utility.yul\":4533:4539   */\n      dup7\n        /* \"#utility.yul\":4489:4561   */\n      tag_151\n      jump\t// in\n    tag_229:\n        /* \"#utility.yul\":4571:4643   */\n      tag_230\n        /* \"#utility.yul\":4639:4641   */\n      0x40\n        /* \"#utility.yul\":4628:4637   */\n      dup4\n        /* \"#utility.yul\":4624:4642   */\n      add\n        /* \"#utility.yul\":4615:4621   */\n      dup6\n        /* \"#utility.yul\":4571:4643   */\n      tag_151\n      jump\t// in\n    tag_230:\n        /* \"#utility.yul\":4653:4725   */\n      tag_231\n        /* \"#utility.yul\":4721:4723   */\n      0x60\n        /* \"#utility.yul\":4710:4719   */\n      dup4\n        /* \"#utility.yul\":4706:4724   */\n      add\n        /* \"#utility.yul\":4697:4703   */\n      dup5\n        /* \"#utility.yul\":4653:4725   */\n      tag_151\n      jump\t// in\n    tag_231:\n        /* \"#utility.yul\":4179:4732   */\n      swap6\n      swap5\n      pop\n      pop\n      pop\n      pop\n      pop\n      jump\t// out\n        /* \"#utility.yul\":4738:4837   */\n    tag_162:\n        /* \"#utility.yul\":4790:4796   */\n      0x00\n        /* \"#utility.yul\":4824:4829   */\n      dup2\n        /* \"#utility.yul\":4818:4830   */\n      mload\n        /* \"#utility.yul\":4808:4830   */\n      swap1\n      pop\n        /* \"#utility.yul\":4738:4837   */\n      swap2\n      swap1\n      pop\n      jump\t// out\n        /* \"#utility.yul\":4843:5012   */\n    tag_163:\n        /* \"#utility.yul\":4927:4938   */\n      0x00\n        /* \"#utility.yul\":4961:4967   */\n      dup3\n        /* \"#utility.yul\":4956:4959   */\n      dup3\n        /* \"#utility.yul\":4949:4968   */\n      mstore\n        /* \"#utility.yul\":5001:5005   */\n      0x20\n        /* \"#utility.yul\":4996:4999   */\n      dup3\n        /* \"#utility.yul\":4992:5006   */\n      add\n        /* \"#utility.yul\":4977:5006   */\n      swap1\n      pop\n        /* \"#utility.yul\":4843:5012   */\n      swap3\n      swap2\n      pop\n      pop\n      jump\t// out\n        /* \"#utility.yul\":5018:5157   */\n    tag_164:\n        /* \"#utility.yul\":5107:5113   */\n      dup3\n        /* \"#utility.yul\":5102:5105   */\n      dup2\n        /* \"#utility.yul\":5097:5100   */\n      dup4\n        /* \"#utility.yul\":5091:5114   */\n      mcopy\n        /* \"#utility.yul\":5148:5149   */\n      0x00\n        /* \"#utility.yul\":5139:5145   */\n      dup4\n        /* \"#utility.yul\":5134:5137   */\n      dup4\n        /* \"#utility.yul\":5130:5146   */\n      add\n        /* \"#utility.yul\":5123:5150   */\n      mstore\n        /* \"#utility.yul\":5018:5157   */\n      pop\n      pop\n      pop\n      jump\t// out\n        /* \"#utility.yul\":5163:5265   */\n    tag_165:\n        /* \"#utility.yul\":5204:5210   */\n      0x00\n        /* \"#utility.yul\":5255:5257   */\n      0x1f\n        /* \"#utility.yul\":5251:5258   */\n      not\n        /* \"#utility.yul\":5246:5248   */\n      0x1f\n        /* \"#utility.yul\":5239:5244   */\n      dup4\n        /* \"#utility.yul\":5235:5249   */\n      add\n        /* \"#utility.yul\":5231:5259   */\n      and\n        /* \"#utility.yul\":5221:5259   */\n      swap1\n      pop\n        /* \"#utility.yul\":5163:5265   */\n      swap2\n      swap1\n      pop\n      jump\t// out\n        /* \"#utility.yul\":5271:5648   */\n    tag_166:\n        /* \"#utility.yul\":5359:5362   */\n      0x00\n        /* \"#utility.yul\":5387:5426   */\n      tag_237\n        /* \"#utility.yul\":5420:5425   */\n      dup3\n        /* \"#utility.yul\":5387:5426   */\n      tag_162\n      jump\t// in\n    tag_237:\n        /* \"#utility.yul\":5442:5513   */\n      tag_238\n        /* \"#utility.yul\":5506:5512   */\n      dup2\n        /* \"#utility.yul\":5501:5504   */\n      dup6\n        /* \"#utility.yul\":5442:5513   */\n      tag_163\n      jump\t// in\n    tag_238:\n        /* \"#utility.yul\":5435:5513   */\n      swap4\n      pop\n        /* \"#utility.yul\":5522:5587   */\n      tag_239\n        /* \"#utility.yul\":5580:5586   */\n      dup2\n        /* \"#utility.yul\":5575:5578   */\n      dup6\n        /* \"#utility.yul\":5568:5572   */\n      0x20\n        /* \"#utility.yul\":5561:5566   */\n      dup7\n        /* \"#utility.yul\":5557:5573   */\n      add\n        /* \"#utility.yul\":5522:5587   */\n      tag_164\n      jump\t// in\n    tag_239:\n        /* \"#utility.yul\":5612:5641   */\n      tag_240\n        /* \"#utility.yul\":5634:5640   */\n      dup2\n        /* \"#utility.yul\":5612:5641   */\n      tag_165\n      jump\t// in\n    tag_240:\n        /* \"#utility.yul\":5607:5610   */\n      dup5\n        /* \"#utility.yul\":5603:5642   */\n      add\n        /* \"#utility.yul\":5596:5642   */\n      swap2\n      pop\n        /* \"#utility.yul\":5363:5648   */\n      pop\n        /* \"#utility.yul\":5271:5648   */\n      swap3\n      swap2\n      pop\n      pop\n      jump\t// out\n        /* \"#utility.yul\":5654:5967   */\n    tag_106:\n        /* \"#utility.yul\":5767:5771   */\n      0x00\n        /* \"#utility.yul\":5805:5807   */\n      0x20\n        /* \"#utility.yul\":5794:5803   */\n      dup3\n        /* \"#utility.yul\":5790:5808   */\n      add\n        /* \"#utility.yul\":5782:5808   */\n      swap1\n      pop\n        /* \"#utility.yul\":5854:5863   */\n      dup2\n        /* \"#utility.yul\":5848:5852   */\n      dup2\n        /* \"#utility.yul\":5844:5864   */\n      sub\n        /* \"#utility.yul\":5840:5841   */\n      0x00\n        /* \"#utility.yul\":5829:5838   */\n      dup4\n        /* \"#utility.yul\":5825:5842   */\n      add\n        /* \"#utility.yul\":5818:5865   */\n      mstore\n        /* \"#utility.yul\":5882:5960   */\n      tag_242\n        /* \"#utility.yul\":5955:5959   */\n      dup2\n        /* \"#utility.yul\":5946:5952   */\n      dup5\n        /* \"#utility.yul\":5882:5960   */\n      tag_166\n      jump\t// in\n    tag_242:\n        /* \"#utility.yul\":5874:5960   */\n      swap1\n      pop\n        /* \"#utility.yul\":5654:5967   */\n      swap3\n      swap2\n      pop\n      pop\n      jump\t// out\n        /* \"#utility.yul\":5973:6383   */\n    tag_127:\n        /* \"#utility.yul\":6013:6020   */\n      0x00\n        /* \"#utility.yul\":6036:6056   */\n      tag_244\n        /* \"#utility.yul\":6054:6055   */\n      dup3\n        /* \"#utility.yul\":6036:6056   */\n      tag_149\n      jump\t// in\n    tag_244:\n        /* \"#utility.yul\":6031:6056   */\n      swap2\n      pop\n        /* \"#utility.yul\":6070:6090   */\n      tag_245\n        /* \"#utility.yul\":6088:6089   */\n      dup4\n        /* \"#utility.yul\":6070:6090   */\n      tag_149\n      jump\t// in\n    tag_245:\n        /* \"#utility.yul\":6065:6090   */\n      swap3\n      pop\n        /* \"#utility.yul\":6125:6126   */\n      dup3\n        /* \"#utility.yul\":6122:6123   */\n      dup3\n        /* \"#utility.yul\":6118:6127   */\n      mul\n        /* \"#utility.yul\":6147:6177   */\n      tag_246\n        /* \"#utility.yul\":6165:6176   */\n      dup2\n        /* \"#utility.yul\":6147:6177   */\n      tag_149\n      jump\t// in\n    tag_246:\n        /* \"#utility.yul\":6136:6177   */\n      swap2\n      pop\n        /* \"#utility.yul\":6326:6327   */\n      dup3\n        /* \"#utility.yul\":6317:6324   */\n      dup3\n        /* \"#utility.yul\":6313:6328   */\n      div\n        /* \"#utility.yul\":6310:6311   */\n      dup5\n        /* \"#utility.yul\":6307:6329   */\n      eq\n        /* \"#utility.yul\":6287:6288   */\n      dup4\n        /* \"#utility.yul\":6280:6289   */\n      iszero\n        /* \"#utility.yul\":6260:6343   */\n      or\n        /* \"#utility.yul\":6237:6376   */\n      tag_247\n      jumpi\n        /* \"#utility.yul\":6356:6374   */\n      tag_248\n      tag_150\n      jump\t// in\n    tag_248:\n        /* \"#utility.yul\":6237:6376   */\n    tag_247:\n        /* \"#utility.yul\":6021:6383   */\n      pop\n        /* \"#utility.yul\":5973:6383   */\n      swap3\n      swap2\n      pop\n      pop\n      jump\t// out\n        /* \"#utility.yul\":6389:6569   */\n    tag_167:\n        /* \"#utility.yul\":6437:6514   */\n      0x4e487b7100000000000000000000000000000000000000000000000000000000\n        /* \"#utility.yul\":6434:6435   */\n      0x00\n        /* \"#utility.yul\":6427:6515   */\n      mstore\n        /* \"#utility.yul\":6534:6538   */\n      0x12\n        /* \"#utility.yul\":6531:6532   */\n      0x04\n        /* \"#utility.yul\":6524:6539   */\n      mstore\n        /* \"#utility.yul\":6558:6562   */\n      0x24\n        /* \"#utility.yul\":6555:6556   */\n      0x00\n        /* \"#utility.yul\":6548:6563   */\n      revert\n        /* \"#utility.yul\":6575:6760   */\n    tag_129:\n        /* \"#utility.yul\":6615:6616   */\n      0x00\n        /* \"#utility.yul\":6632:6652   */\n      tag_251\n        /* \"#utility.yul\":6650:6651   */\n      dup3\n        /* \"#utility.yul\":6632:6652   */\n      tag_149\n      jump\t// in\n    tag_251:\n        /* \"#utility.yul\":6627:6652   */\n      swap2\n      pop\n        /* \"#utility.yul\":6666:6686   */\n      tag_252\n        /* \"#utility.yul\":6684:6685   */\n      dup4\n        /* \"#utility.yul\":6666:6686   */\n      tag_149\n      jump\t// in\n    tag_252:\n        /* \"#utility.yul\":6661:6686   */\n      swap3\n      pop\n        /* \"#utility.yul\":6705:6706   */\n      dup3\n        /* \"#utility.yul\":6695:6730   */\n      tag_253\n      jumpi\n        /* \"#utility.yul\":6710:6728   */\n      tag_254\n      tag_167\n      jump\t// in\n    tag_254:\n        /* \"#utility.yul\":6695:6730   */\n    tag_253:\n        /* \"#utility.yul\":6752:6753   */\n      dup3\n        /* \"#utility.yul\":6749:6750   */\n      dup3\n        /* \"#utility.yul\":6745:6754   */\n      div\n        /* \"#utility.yul\":6740:6754   */\n      swap1\n      pop\n        /* \"#utility.yul\":6575:6760   */\n      swap3\n      swap2\n      pop\n      pop\n      jump\t// out\n        /* \"#utility.yul\":6766:6913   */\n    tag_168:\n        /* \"#utility.yul\":6867:6878   */\n      0x00\n        /* \"#utility.yul\":6904:6907   */\n      dup2\n        /* \"#utility.yul\":6889:6907   */\n      swap1\n      pop\n        /* \"#utility.yul\":6766:6913   */\n      swap3\n      swap2\n      pop\n      pop\n      jump\t// out\n        /* \"#utility.yul\":6919:7033   */\n    tag_169:\n      pop\n      jump\t// out\n        /* \"#utility.yul\":7039:7437   */\n    tag_170:\n        /* \"#utility.yul\":7198:7201   */\n      0x00\n        /* \"#utility.yul\":7219:7302   */\n      tag_258\n        /* \"#utility.yul\":7300:7301   */\n      0x00\n        /* \"#utility.yul\":7295:7298   */\n      dup4\n        /* \"#utility.yul\":7219:7302   */\n      tag_168\n      jump\t// in\n    tag_258:\n        /* \"#utility.yul\":7212:7302   */\n      swap2\n      pop\n        /* \"#utility.yul\":7311:7404   */\n      tag_259\n        /* \"#utility.yul\":7400:7403   */\n      dup3\n        /* \"#utility.yul\":7311:7404   */\n      tag_169\n      jump\t// in\n    tag_259:\n        /* \"#utility.yul\":7429:7430   */\n      0x00\n        /* \"#utility.yul\":7424:7427   */\n      dup3\n        /* \"#utility.yul\":7420:7431   */\n      add\n        /* \"#utility.yul\":7413:7431   */\n      swap1\n      pop\n        /* \"#utility.yul\":7039:7437   */\n      swap2\n      swap1\n      pop\n      jump\t// out\n        /* \"#utility.yul\":7443:7822   */\n    tag_144:\n        /* \"#utility.yul\":7627:7630   */\n      0x00\n        /* \"#utility.yul\":7649:7796   */\n      tag_261\n        /* \"#utility.yul\":7792:7795   */\n      dup3\n        /* \"#utility.yul\":7649:7796   */\n      tag_170\n      jump\t// in\n    tag_261:\n        /* \"#utility.yul\":7642:7796   */\n      swap2\n      pop\n        /* \"#utility.yul\":7813:7816   */\n      dup2\n        /* \"#utility.yul\":7806:7816   */\n      swap1\n      pop\n        /* \"#utility.yul\":7443:7822   */\n      swap2\n      swap1\n      pop\n      jump\t// out\n\n    auxdata: 0xa2646970667358221220d8e326aaba94b366e09ad89e4b70df5c897faa6e11af133ca6407273f77aac9764736f6c634300081e0033\n}\n",
				"bytecode": {
					"linkReferences": {},
					"object": "60c060405234801561000f575f5ffd5b50604051611459380380611459833981810160405281019061003191906100bf565b81608081815250508060a081815250503360035f6101000a81548173ffffffffffffffffffffffffffffffffffffffff021916908373ffffffffffffffffffffffffffffffffffffffff16021790555050506100fd565b5f5ffd5b5f819050919050565b61009e8161008c565b81146100a8575f5ffd5b50565b5f815190506100b981610095565b92915050565b5f5f604083850312156100d5576100d4610088565b5b5f6100e2858286016100ab565b92505060206100f3858286016100ab565b9150509250929050565b60805160a0516113036101565f395f818161012b0152818161016201528181610afe01528181610b2501528181610ba901528181610be00152610daa01525f81816106bc015281816106e50152610aa201526113035ff3fe6080604052600436106100eb575f3560e01c80637d88209711610089578063d0e30db011610058578063d0e30db014610559578063ecbea24d14610563578063ff50abdc1461058d578063ffa1ad74146105b75761032a565b80637d882097146104ae5780637ddfe78d146104d85780638da5cb5b14610502578063c6e8e38c1461052c5761032a565b806347734892116100c557806347734892146103ce5780634e43603a1461040a5780636046462714610448578063729c3e0e146104725761032a565b806326224c641461032e578063272751461461036a5780632e1a7d4d146103a65761032a565b3661032a575f3403610129576040517f836971dc00000000000000000000000000000000000000000000000000000000815260040160405180910390fd5b7f0000000000000000000000000000000000000000000000000000000000000000345f546101579190610ee4565b11156101c857345f547f000000000000000000000000000000000000000000000000000000000000000061018b9190610f17565b6040517f0aac9bf80000000000000000000000000000000000000000000000000000000081526004016101bf929190610f59565b60405180910390fd5b3460045f3373ffffffffffffffffffffffffffffffffffffffff1673ffffffffffffffffffffffffffffffffffffffff1681526020019081526020015f205f8282546102149190610ee4565b92505081905550345f5f82825461022b9190610ee4565b9250508190555060015f81548092919061024490610f80565b919050555060055f3373ffffffffffffffffffffffffffffffffffffffff1673ffffffffffffffffffffffffffffffffffffffff1681526020019081526020015f205f81548092919061029690610f80565b91905055503373ffffffffffffffffffffffffffffffffffffffff167f0b05f0d1cd0819f155b8a61f60baf7767c1ee49d04aeaab701df236140eb93f93460045f3373ffffffffffffffffffffffffffffffffffffffff1673ffffffffffffffffffffffffffffffffffffffff1681526020019081526020015f2054604051610320929190610f59565b60405180910390a2005b5f5ffd5b348015610339575f5ffd5b50610354600480360381019061034f9190611025565b6105e1565b6040516103619190611050565b60405180910390f35b348015610375575f5ffd5b50610390600480360381019061038b9190611025565b6105f6565b60405161039d9190611050565b60405180910390f35b3480156103b1575f5ffd5b506103cc60048036038101906103c79190611093565b61060b565b005b3480156103d9575f5ffd5b506103f460048036038101906103ef9190611025565b61096f565b6040516104019190611050565b60405180910390f35b348015610415575f5ffd5b50610430600480360381019061042b9190611025565b6109b5565b60405161043f939291906110be565b60405180910390f35b348015610453575f5ffd5b5061045c610a7f565b6040516104699190611050565b60405180910390f35b34801561047d575f5ffd5b5061049860048036038101906104939190611025565b610a85565b6040516104a59190611050565b60405180910390f35b3480156104b9575f5ffd5b506104c2610a9a565b6040516104cf9190611050565b60405180910390f35b3480156104e3575f5ffd5b506104ec610aa0565b6040516104f99190611050565b60405180910390f35b34801561050d575f5ffd5b50610516610ac4565b6040516105239190611102565b60405180910390f35b348015610537575f5ffd5b50610540610ae9565b604051610550949392919061111b565b60405180910390f35b610561610b6e565b005b34801561056e575f5ffd5b50610577610da8565b6040516105849190611050565b60405180910390f35b348015610598575f5ffd5b506105a1610dcc565b6040516105ae9190611050565b60405180910390f35b3480156105c2575f5ffd5b506105cb610dd1565b6040516105d891906111ce565b60405180910390f35b6004602052805f5260405f205f915090505481565b6006602052805f5260405f205f915090505481565b5f60045f3373ffffffffffffffffffffffffffffffffffffffff1673ffffffffffffffffffffffffffffffffffffffff1681526020019081526020015f205403610681576040517f03def18400000000000000000000000000000000000000000000000000000000815260040160405180910390fd5b5f81036106ba576040517fac3f137400000000000000000000000000000000000000000000000000000000815260040160405180910390fd5b7f000000000000000000000000000000000000000000000000000000000000000081111561074157807f00000000000000000000000000000000000000000000000000000000000000006040517f72dc2262000000000000000000000000000000000000000000000000000000008152600401610738929190610f59565b60405180910390fd5b60045f3373ffffffffffffffffffffffffffffffffffffffff1673ffffffffffffffffffffffffffffffffffffffff1681526020019081526020015f2054811115610802578060045f3373ffffffffffffffffffffffffffffffffffffffff1673ffffffffffffffffffffffffffffffffffffffff1681526020019081526020015f20546040517fcf4791810000000000000000000000000000000000000000000000000000000081526004016107f9929190610f59565b60405180910390fd5b8060045f3373ffffffffffffffffffffffffffffffffffffffff1673ffffffffffffffffffffffffffffffffffffffff1681526020019081526020015f205f82825461084e9190610f17565b92505081905550805f5f8282546108659190610f17565b9250508190555060025f81548092919061087e90610f80565b919050555060065f3373ffffffffffffffffffffffffffffffffffffffff1673ffffffffffffffffffffffffffffffffffffffff1681526020019081526020015f205f8154809291906108d090610f80565b91905055506108df3382610e0a565b3373ffffffffffffffffffffffffffffffffffffffff167f2d4d49c3e017b8235c908cbaa83a2431a08f3b950712696ece2088964fd399f08260045f3373ffffffffffffffffffffffffffffffffffffffff1673ffffffffffffffffffffffffffffffffffffffff1681526020019081526020015f2054604051610964929190610f59565b60405180910390a250565b5f60045f8373ffffffffffffffffffffffffffffffffffffffff1673ffffffffffffffffffffffffffffffffffffffff1681526020019081526020015f20549050919050565b5f5f5f60045f8573ffffffffffffffffffffffffffffffffffffffff1673ffffffffffffffffffffffffffffffffffffffff1681526020019081526020015f2054925060055f8573ffffffffffffffffffffffffffffffffffffffff1673ffffffffffffffffffffffffffffffffffffffff1681526020019081526020015f2054915060065f8573ffffffffffffffffffffffffffffffffffffffff1673ffffffffffffffffffffffffffffffffffffffff1681526020019081526020015f205490509193909250565b60025481565b6005602052805f5260405f205f915090505481565b60015481565b7f000000000000000000000000000000000000000000000000000000000000000081565b60035f9054906101000a900473ffffffffffffffffffffffffffffffffffffffff1681565b5f5f5f5f5f549350600154925060025491505f7f00000000000000000000000000000000000000000000000000000000000000001115610b64577f00000000000000000000000000000000000000000000000000000000000000006127105f54610b5391906111ee565b610b5d919061125c565b9050610b68565b5f90505b90919293565b5f3403610ba7576040517f836971dc00000000000000000000000000000000000000000000000000000000815260040160405180910390fd5b7f0000000000000000000000000000000000000000000000000000000000000000345f54610bd59190610ee4565b1115610c4657345f547f0000000000000000000000000000000000000000000000000000000000000000610c099190610f17565b6040517f0aac9bf8000000000000000000000000000000000000000000000000000000008152600401610c3d929190610f59565b60405180910390fd5b3460045f3373ffffffffffffffffffffffffffffffffffffffff1673ffffffffffffffffffffffffffffffffffffffff1681526020019081526020015f205f828254610c929190610ee4565b92505081905550345f5f828254610ca99190610ee4565b9250508190555060015f815480929190610cc290610f80565b919050555060055f3373ffffffffffffffffffffffffffffffffffffffff1673ffffffffffffffffffffffffffffffffffffffff1681526020019081526020015f205f815480929190610d1490610f80565b91905055503373ffffffffffffffffffffffffffffffffffffffff167f0b05f0d1cd0819f155b8a61f60baf7767c1ee49d04aeaab701df236140eb93f93460045f3373ffffffffffffffffffffffffffffffffffffffff1673ffffffffffffffffffffffffffffffffffffffff1681526020019081526020015f2054604051610d9e929190610f59565b60405180910390a2565b7f000000000000000000000000000000000000000000000000000000000000000081565b5f5481565b6040518060400160405280600581526020017f312e302e3000000000000000000000000000000000000000000000000000000081525081565b5f8273ffffffffffffffffffffffffffffffffffffffff1682604051610e2f906112b9565b5f6040518083038185875af1925050503d805f8114610e69576040519150601f19603f3d011682016040523d82523d5f602084013e610e6e565b606091505b5050905080610ea9576040517f90b8ec1800000000000000000000000000000000000000000000000000000000815260040160405180910390fd5b505050565b5f819050919050565b7f4e487b71000000000000000000000000000000000000000000000000000000005f52601160045260245ffd5b5f610eee82610eae565b9150610ef983610eae565b9250828201905080821115610f1157610f10610eb7565b5b92915050565b5f610f2182610eae565b9150610f2c83610eae565b9250828203905081811115610f4457610f43610eb7565b5b92915050565b610f5381610eae565b82525050565b5f604082019050610f6c5f830185610f4a565b610f796020830184610f4a565b9392505050565b5f610f8a82610eae565b91507fffffffffffffffffffffffffffffffffffffffffffffffffffffffffffffffff8203610fbc57610fbb610eb7565b5b600182019050919050565b5f5ffd5b5f73ffffffffffffffffffffffffffffffffffffffff82169050919050565b5f610ff482610fcb565b9050919050565b61100481610fea565b811461100e575f5ffd5b50565b5f8135905061101f81610ffb565b92915050565b5f6020828403121561103a57611039610fc7565b5b5f61104784828501611011565b91505092915050565b5f6020820190506110635f830184610f4a565b92915050565b61107281610eae565b811461107c575f5ffd5b50565b5f8135905061108d81611069565b92915050565b5f602082840312156110a8576110a7610fc7565b5b5f6110b58482850161107f565b91505092915050565b5f6060820190506110d15f830186610f4a565b6110de6020830185610f4a565b6110eb6040830184610f4a565b949350505050565b6110fc81610fea565b82525050565b5f6020820190506111155f8301846110f3565b92915050565b5f60808201905061112e5f830187610f4a565b61113b6020830186610f4a565b6111486040830185610f4a565b6111556060830184610f4a565b95945050505050565b5f81519050919050565b5f82825260208201905092915050565b8281835e5f83830152505050565b5f601f19601f8301169050919050565b5f6111a08261115e565b6111aa8185611168565b93506111ba818560208601611178565b6111c381611186565b840191505092915050565b5f6020820190508181035f8301526111e68184611196565b905092915050565b5f6111f882610eae565b915061120383610eae565b925082820261121181610eae565b9150828204841483151761122857611227610eb7565b5b5092915050565b7f4e487b71000000000000000000000000000000000000000000000000000000005f52601260045260245ffd5b5f61126682610eae565b915061127183610eae565b9250826112815761128061122f565b5b828204905092915050565b5f81905092915050565b50565b5f6112a45f8361128c565b91506112af82611296565b5f82019050919050565b5f6112c382611299565b915081905091905056fea2646970667358221220d8e326aaba94b366e09ad89e4b70df5c897faa6e11af133ca6407273f77aac9764736f6c634300081e0033",
					"opcodes": "PUSH1 0xC0 PUSH1 0x40 MSTORE CALLVALUE DUP1 ISZERO PUSH2 0xF JUMPI PUSH0 PUSH0 REVERT JUMPDEST POP PUSH1 0x40 MLOAD PUSH2 0x1459 CODESIZE SUB DUP1 PUSH2 0x1459 DUP4 CODECOPY DUP2 DUP2 ADD PUSH1 0x40 MSTORE DUP2 ADD SWAP1 PUSH2 0x31 SWAP2 SWAP1 PUSH2 0xBF JUMP JUMPDEST DUP2 PUSH1 0x80 DUP2 DUP2 MSTORE POP POP DUP1 PUSH1 0xA0 DUP2 DUP2 MSTORE POP POP CALLER PUSH1 0x3 PUSH0 PUSH2 0x100 EXP DUP2 SLOAD DUP2 PUSH20 0xFFFFFFFFFFFFFFFFFFFFFFFFFFFFFFFFFFFFFFFF MUL NOT AND SWAP1 DUP4 PUSH20 0xFFFFFFFFFFFFFFFFFFFFFFFFFFFFFFFFFFFFFFFF AND MUL OR SWAP1 SSTORE POP POP POP PUSH2 0xFD JUMP JUMPDEST PUSH0 PUSH0 REVERT JUMPDEST PUSH0 DUP2 SWAP1 POP SWAP2 SWAP1 POP JUMP JUMPDEST PUSH2 0x9E DUP2 PUSH2 0x8C JUMP JUMPDEST DUP2 EQ PUSH2 0xA8 JUMPI PUSH0 PUSH0 REVERT JUMPDEST POP JUMP JUMPDEST PUSH0 DUP2 MLOAD SWAP1 POP PUSH2 0xB9 DUP2 PUSH2 0x95 JUMP JUMPDEST SWAP3 SWAP2 POP POP JUMP JUMPDEST PUSH0 PUSH0 PUSH1 0x40 DUP4 DUP6 SUB SLT ISZERO PUSH2 0xD5 JUMPI PUSH2 0xD4 PUSH2 0x88 JUMP JUMPDEST JUMPDEST PUSH0 PUSH2 0xE2 DUP6 DUP3 DUP7 ADD PUSH2 0xAB JUMP JUMPDEST SWAP3 POP POP PUSH1 0x20 PUSH2 0xF3 DUP6 DUP3 DUP7 ADD PUSH2 0xAB JUMP JUMPDEST SWAP2 POP POP SWAP3 POP SWAP3 SWAP1 POP JUMP JUMPDEST PUSH1 0x80 MLOAD PUSH1 0xA0 MLOAD PUSH2 0x1303 PUSH2 0x156 PUSH0 CODECOPY PUSH0 DUP2 DUP2 PUSH2 0x12B ADD MSTORE DUP2 DUP2 PUSH2 0x162 ADD MSTORE DUP2 DUP2 PUSH2 0xAFE ADD MSTORE DUP2 DUP2 PUSH2 0xB25 ADD MSTORE DUP2 DUP2 PUSH2 0xBA9 ADD MSTORE DUP2 DUP2 PUSH2 0xBE0 ADD MSTORE PUSH2 0xDAA ADD MSTORE PUSH0 DUP2 DUP2 PUSH2 0x6BC ADD MSTORE DUP2 DUP2 PUSH2 0x6E5 ADD MSTORE PUSH2 0xAA2 ADD MSTORE PUSH2 0x1303 PUSH0 RETURN INVALID PUSH1 0x80 PUSH1 0x40 MSTORE PUSH1 0x4 CALLDATASIZE LT PUSH2 0xEB JUMPI PUSH0 CALLDATALOAD PUSH1 0xE0 SHR DUP1 PUSH4 0x7D882097 GT PUSH2 0x89 JUMPI DUP1 PUSH4 0xD0E30DB0 GT PUSH2 0x58 JUMPI DUP1 PUSH4 0xD0E30DB0 EQ PUSH2 0x559 JUMPI DUP1 PUSH4 0xECBEA24D EQ PUSH2 0x563 JUMPI DUP1 PUSH4 0xFF50ABDC EQ PUSH2 0x58D JUMPI DUP1 PUSH4 0xFFA1AD74 EQ PUSH2 0x5B7 JUMPI PUSH2 0x32A JUMP JUMPDEST DUP1 PUSH4 0x7D882097 EQ PUSH2 0x4AE JUMPI DUP1 PUSH4 0x7DDFE78D EQ PUSH2 0x4D8 JUMPI DUP1 PUSH4 0x8DA5CB5B EQ PUSH2 0x502 JUMPI DUP1 PUSH4 0xC6E8E38C EQ PUSH2 0x52C JUMPI PUSH2 0x32A JUMP JUMPDEST DUP1 PUSH4 0x47734892 GT PUSH2 0xC5 JUMPI DUP1 PUSH4 0x47734892 EQ PUSH2 0x3CE JUMPI DUP1 PUSH4 0x4E43603A EQ PUSH2 0x40A JUMPI DUP1 PUSH4 0x60464627 EQ PUSH2 0x448 JUMPI DUP1 PUSH4 0x729C3E0E EQ PUSH2 0x472 JUMPI PUSH2 0x32A JUMP JUMPDEST DUP1 PUSH4 0x26224C64 EQ PUSH2 0x32E JUMPI DUP1 PUSH4 0x27275146 EQ PUSH2 0x36A JUMPI DUP1 PUSH4 0x2E1A7D4D EQ PUSH2 0x3A6 JUMPI PUSH2 0x32A JUMP JUMPDEST CALLDATASIZE PUSH2 0x32A JUMPI PUSH0 CALLVALUE SUB PUSH2 0x129 JUMPI PUSH1 0x40 MLOAD PUSH32 0x836971DC00000000000000000000000000000000000000000000000000000000 DUP2 MSTORE PUSH1 0x4 ADD PUSH1 0x40 MLOAD DUP1 SWAP2 SUB SWAP1 REVERT JUMPDEST PUSH32 0x0 CALLVALUE PUSH0 SLOAD PUSH2 0x157 SWAP2 SWAP1 PUSH2 0xEE4 JUMP JUMPDEST GT ISZERO PUSH2 0x1C8 JUMPI CALLVALUE PUSH0 SLOAD PUSH32 0x0 PUSH2 0x18B SWAP2 SWAP1 PUSH2 0xF17 JUMP JUMPDEST PUSH1 0x40 MLOAD PUSH32 0xAAC9BF800000000000000000000000000000000000000000000000000000000 DUP2 MSTORE PUSH1 0x4 ADD PUSH2 0x1BF SWAP3 SWAP2 SWAP1 PUSH2 0xF59 JUMP JUMPDEST PUSH1 0x40 MLOAD DUP1 SWAP2 SUB SWAP1 REVERT JUMPDEST CALLVALUE PUSH1 0x4 PUSH0 CALLER PUSH20 0xFFFFFFFFFFFFFFFFFFFFFFFFFFFFFFFFFFFFFFFF AND PUSH20 0xFFFFFFFFFFFFFFFFFFFFFFFFFFFFFFFFFFFFFFFF AND DUP2 MSTORE PUSH1 0x20 ADD SWAP1 DUP2 MSTORE PUSH1 0x20 ADD PUSH0 KECCAK256 PUSH0 DUP3 DUP3 SLOAD PUSH2 0x214 SWAP2 SWAP1 PUSH2 0xEE4 JUMP JUMPDEST SWAP3 POP POP DUP2 SWAP1 SSTORE POP CALLVALUE PUSH0 PUSH0 DUP3 DUP3 SLOAD PUSH2 0x22B SWAP2 SWAP1 PUSH2 0xEE4 JUMP JUMPDEST SWAP3 POP POP DUP2 SWAP1 SSTORE POP PUSH1 0x1 PUSH0 DUP2 SLOAD DUP1 SWAP3 SWAP2 SWAP1 PUSH2 0x244 SWAP1 PUSH2 0xF80 JUMP JUMPDEST SWAP2 SWAP1 POP SSTORE POP PUSH1 0x5 PUSH0 CALLER PUSH20 0xFFFFFFFFFFFFFFFFFFFFFFFFFFFFFFFFFFFFFFFF AND PUSH20 0xFFFFFFFFFFFFFFFFFFFFFFFFFFFFFFFFFFFFFFFF AND DUP2 MSTORE PUSH1 0x20 ADD SWAP1 DUP2 MSTORE PUSH1 0x20 ADD PUSH0 KECCAK256 PUSH0 DUP2 SLOAD DUP1 SWAP3 SWAP2 SWAP1 PUSH2 0x296 SWAP1 PUSH2 0xF80 JUMP JUMPDEST SWAP2 SWAP1 POP SSTORE POP CALLER PUSH20 0xFFFFFFFFFFFFFFFFFFFFFFFFFFFFFFFFFFFFFFFF AND PUSH32 0xB05F0D1CD0819F155B8A61F60BAF7767C1EE49D04AEAAB701DF236140EB93F9 CALLVALUE PUSH1 0x4 PUSH0 CALLER PUSH20 0xFFFFFFFFFFFFFFFFFFFFFFFFFFFFFFFFFFFFFFFF AND PUSH20 0xFFFFFFFFFFFFFFFFFFFFFFFFFFFFFFFFFFFFFFFF AND DUP2 MSTORE PUSH1 0x20 ADD SWAP1 DUP2 MSTORE PUSH1 0x20 ADD PUSH0 KECCAK256 SLOAD PUSH1 0x40 MLOAD PUSH2 0x320 SWAP3 SWAP2 SWAP1 PUSH2 0xF59 JUMP JUMPDEST PUSH1 0x40 MLOAD DUP1 SWAP2 SUB SWAP1 LOG2 STOP JUMPDEST PUSH0 PUSH0 REVERT JUMPDEST CALLVALUE DUP1 ISZERO PUSH2 0x339 JUMPI PUSH0 PUSH0 REVERT JUMPDEST POP PUSH2 0x354 PUSH1 0x4 DUP1 CALLDATASIZE SUB DUP2 ADD SWAP1 PUSH2 0x34F SWAP2 SWAP1 PUSH2 0x1025 JUMP JUMPDEST PUSH2 0x5E1 JUMP JUMPDEST PUSH1 0x40 MLOAD PUSH2 0x361 SWAP2 SWAP1 PUSH2 0x1050 JUMP JUMPDEST PUSH1 0x40 MLOAD DUP1 SWAP2 SUB SWAP1 RETURN JUMPDEST CALLVALUE DUP1 ISZERO PUSH2 0x375 JUMPI PUSH0 PUSH0 REVERT JUMPDEST POP PUSH2 0x390 PUSH1 0x4 DUP1 CALLDATASIZE SUB DUP2 ADD SWAP1 PUSH2 0x38B SWAP2 SWAP1 PUSH2 0x1025 JUMP JUMPDEST PUSH2 0x5F6 JUMP JUMPDEST PUSH1 0x40 MLOAD PUSH2 0x39D SWAP2 SWAP1 PUSH2 0x1050 JUMP JUMPDEST PUSH1 0x40 MLOAD DUP1 SWAP2 SUB SWAP1 RETURN JUMPDEST CALLVALUE DUP1 ISZERO PUSH2 0x3B1 JUMPI PUSH0 PUSH0 REVERT JUMPDEST POP PUSH2 0x3CC PUSH1 0x4 DUP1 CALLDATASIZE SUB DUP2 ADD SWAP1 PUSH2 0x3C7 SWAP2 SWAP1 PUSH2 0x1093 JUMP JUMPDEST PUSH2 0x60B JUMP JUMPDEST STOP JUMPDEST CALLVALUE DUP1 ISZERO PUSH2 0x3D9 JUMPI PUSH0 PUSH0 REVERT JUMPDEST POP PUSH2 0x3F4 PUSH1 0x4 DUP1 CALLDATASIZE SUB DUP2 ADD SWAP1 PUSH2 0x3EF SWAP2 SWAP1 PUSH2 0x1025 JUMP JUMPDEST PUSH2 0x96F JUMP JUMPDEST PUSH1 0x40 MLOAD PUSH2 0x401 SWAP2 SWAP1 PUSH2 0x1050 JUMP JUMPDEST PUSH1 0x40 MLOAD DUP1 SWAP2 SUB SWAP1 RETURN JUMPDEST CALLVALUE DUP1 ISZERO PUSH2 0x415 JUMPI PUSH0 PUSH0 REVERT JUMPDEST POP PUSH2 0x430 PUSH1 0x4 DUP1 CALLDATASIZE SUB DUP2 ADD SWAP1 PUSH2 0x42B SWAP2 SWAP1 PUSH2 0x1025 JUMP JUMPDEST PUSH2 0x9B5 JUMP JUMPDEST PUSH1 0x40 MLOAD PUSH2 0x43F SWAP4 SWAP3 SWAP2 SWAP1 PUSH2 0x10BE JUMP JUMPDEST PUSH1 0x40 MLOAD DUP1 SWAP2 SUB SWAP1 RETURN JUMPDEST CALLVALUE DUP1 ISZERO PUSH2 0x453 JUMPI PUSH0 PUSH0 REVERT JUMPDEST POP PUSH2 0x45C PUSH2 0xA7F JUMP JUMPDEST PUSH1 0x40 MLOAD PUSH2 0x469 SWAP2 SWAP1 PUSH2 0x1050 JUMP JUMPDEST PUSH1 0x40 MLOAD DUP1 SWAP2 SUB SWAP1 RETURN JUMPDEST CALLVALUE DUP1 ISZERO PUSH2 0x47D JUMPI PUSH0 PUSH0 REVERT JUMPDEST POP PUSH2 0x498 PUSH1 0x4 DUP1 CALLDATASIZE SUB DUP2 ADD SWAP1 PUSH2 0x493 SWAP2 SWAP1 PUSH2 0x1025 JUMP JUMPDEST PUSH2 0xA85 JUMP JUMPDEST PUSH1 0x40 MLOAD PUSH2 0x4A5 SWAP2 SWAP1 PUSH2 0x1050 JUMP JUMPDEST PUSH1 0x40 MLOAD DUP1 SWAP2 SUB SWAP1 RETURN JUMPDEST CALLVALUE DUP1 ISZERO PUSH2 0x4B9 JUMPI PUSH0 PUSH0 REVERT JUMPDEST POP PUSH2 0x4C2 PUSH2 0xA9A JUMP JUMPDEST PUSH1 0x40 MLOAD PUSH2 0x4CF SWAP2 SWAP1 PUSH2 0x1050 JUMP JUMPDEST PUSH1 0x40 MLOAD DUP1 SWAP2 SUB SWAP1 RETURN JUMPDEST CALLVALUE DUP1 ISZERO PUSH2 0x4E3 JUMPI PUSH0 PUSH0 REVERT JUMPDEST POP PUSH2 0x4EC PUSH2 0xAA0 JUMP JUMPDEST PUSH1 0x40 MLOAD PUSH2 0x4F9 SWAP2 SWAP1 PUSH2 0x1050 JUMP JUMPDEST PUSH1 0x40 MLOAD DUP1 SWAP2 SUB SWAP1 RETURN JUMPDEST CALLVALUE DUP1 ISZERO PUSH2 0x50D JUMPI PUSH0 PUSH0 REVERT JUMPDEST POP PUSH2 0x516 PUSH2 0xAC4 JUMP JUMPDEST PUSH1 0x40 MLOAD PUSH2 0x523 SWAP2 SWAP1 PUSH2 0x1102 JUMP JUMPDEST PUSH1 0x40 MLOAD DUP1 SWAP2 SUB SWAP1 RETURN JUMPDEST CALLVALUE DUP1 ISZERO PUSH2 0x537 JUMPI PUSH0 PUSH0 REVERT JUMPDEST POP PUSH2 0x540 PUSH2 0xAE9 JUMP JUMPDEST PUSH1 0x40 MLOAD PUSH2 0x550 SWAP5 SWAP4 SWAP3 SWAP2 SWAP1 PUSH2 0x111B JUMP JUMPDEST PUSH1 0x40 MLOAD DUP1 SWAP2 SUB SWAP1 RETURN JUMPDEST PUSH2 0x561 PUSH2 0xB6E JUMP JUMPDEST STOP JUMPDEST CALLVALUE DUP1 ISZERO PUSH2 0x56E JUMPI PUSH0 PUSH0 REVERT JUMPDEST POP PUSH2 0x577 PUSH2 0xDA8 JUMP JUMPDEST PUSH1 0x40 MLOAD PUSH2 0x584 SWAP2 SWAP1 PUSH2 0x1050 JUMP JUMPDEST PUSH1 0x40 MLOAD DUP1 SWAP2 SUB SWAP1 RETURN JUMPDEST CALLVALUE DUP1 ISZERO PUSH2 0x598 JUMPI PUSH0 PUSH0 REVERT JUMPDEST POP PUSH2 0x5A1 PUSH2 0xDCC JUMP JUMPDEST PUSH1 0x40 MLOAD PUSH2 0x5AE SWAP2 SWAP1 PUSH2 0x1050 JUMP JUMPDEST PUSH1 0x40 MLOAD DUP1 SWAP2 SUB SWAP1 RETURN JUMPDEST CALLVALUE DUP1 ISZERO PUSH2 0x5C2 JUMPI PUSH0 PUSH0 REVERT JUMPDEST POP PUSH2 0x5CB PUSH2 0xDD1 JUMP JUMPDEST PUSH1 0x40 MLOAD PUSH2 0x5D8 SWAP2 SWAP1 PUSH2 0x11CE JUMP JUMPDEST PUSH1 0x40 MLOAD DUP1 SWAP2 SUB SWAP1 RETURN JUMPDEST PUSH1 0x4 PUSH1 0x20 MSTORE DUP1 PUSH0 MSTORE PUSH1 0x40 PUSH0 KECCAK256 PUSH0 SWAP2 POP SWAP1 POP SLOAD DUP2 JUMP JUMPDEST PUSH1 0x6 PUSH1 0x20 MSTORE DUP1 PUSH0 MSTORE PUSH1 0x40 PUSH0 KECCAK256 PUSH0 SWAP2 POP SWAP1 POP SLOAD DUP2 JUMP JUMPDEST PUSH0 PUSH1 0x4 PUSH0 CALLER PUSH20 0xFFFFFFFFFFFFFFFFFFFFFFFFFFFFFFFFFFFFFFFF AND PUSH20 0xFFFFFFFFFFFFFFFFFFFFFFFFFFFFFFFFFFFFFFFF AND DUP2 MSTORE PUSH1 0x20 ADD SWAP1 DUP2 MSTORE PUSH1 0x20 ADD PUSH0 KECCAK256 SLOAD SUB PUSH2 0x681 JUMPI PUSH1 0x40 MLOAD PUSH32 0x3DEF18400000000000000000000000000000000000000000000000000000000 DUP2 MSTORE PUSH1 0x4 ADD PUSH1 0x40 MLOAD DUP1 SWAP2 SUB SWAP1 REVERT JUMPDEST PUSH0 DUP2 SUB PUSH2 0x6BA JUMPI PUSH1 0x40 MLOAD PUSH32 0xAC3F137400000000000000000000000000000000000000000000000000000000 DUP2 MSTORE PUSH1 0x4 ADD PUSH1 0x40 MLOAD DUP1 SWAP2 SUB SWAP1 REVERT JUMPDEST PUSH32 0x0 DUP2 GT ISZERO PUSH2 0x741 JUMPI DUP1 PUSH32 0x0 PUSH1 0x40 MLOAD PUSH32 0x72DC226200000000000000000000000000000000000000000000000000000000 DUP2 MSTORE PUSH1 0x4 ADD PUSH2 0x738 SWAP3 SWAP2 SWAP1 PUSH2 0xF59 JUMP JUMPDEST PUSH1 0x40 MLOAD DUP1 SWAP2 SUB SWAP1 REVERT JUMPDEST PUSH1 0x4 PUSH0 CALLER PUSH20 0xFFFFFFFFFFFFFFFFFFFFFFFFFFFFFFFFFFFFFFFF AND PUSH20 0xFFFFFFFFFFFFFFFFFFFFFFFFFFFFFFFFFFFFFFFF AND DUP2 MSTORE PUSH1 0x20 ADD SWAP1 DUP2 MSTORE PUSH1 0x20 ADD PUSH0 KECCAK256 SLOAD DUP2 GT ISZERO PUSH2 0x802 JUMPI DUP1 PUSH1 0x4 PUSH0 CALLER PUSH20 0xFFFFFFFFFFFFFFFFFFFFFFFFFFFFFFFFFFFFFFFF AND PUSH20 0xFFFFFFFFFFFFFFFFFFFFFFFFFFFFFFFFFFFFFFFF AND DUP2 MSTORE PUSH1 0x20 ADD SWAP1 DUP2 MSTORE PUSH1 0x20 ADD PUSH0 KECCAK256 SLOAD PUSH1 0x40 MLOAD PUSH32 0xCF47918100000000000000000000000000000000000000000000000000000000 DUP2 MSTORE PUSH1 0x4 ADD PUSH2 0x7F9 SWAP3 SWAP2 SWAP1 PUSH2 0xF59 JUMP JUMPDEST PUSH1 0x40 MLOAD DUP1 SWAP2 SUB SWAP1 REVERT JUMPDEST DUP1 PUSH1 0x4 PUSH0 CALLER PUSH20 0xFFFFFFFFFFFFFFFFFFFFFFFFFFFFFFFFFFFFFFFF AND PUSH20 0xFFFFFFFFFFFFFFFFFFFFFFFFFFFFFFFFFFFFFFFF AND DUP2 MSTORE PUSH1 0x20 ADD SWAP1 DUP2 MSTORE PUSH1 0x20 ADD PUSH0 KECCAK256 PUSH0 DUP3 DUP3 SLOAD PUSH2 0x84E SWAP2 SWAP1 PUSH2 0xF17 JUMP JUMPDEST SWAP3 POP POP DUP2 SWAP1 SSTORE POP DUP1 PUSH0 PUSH0 DUP3 DUP3 SLOAD PUSH2 0x865 SWAP2 SWAP1 PUSH2 0xF17 JUMP JUMPDEST SWAP3 POP POP DUP2 SWAP1 SSTORE POP PUSH1 0x2 PUSH0 DUP2 SLOAD DUP1 SWAP3 SWAP2 SWAP1 PUSH2 0x87E SWAP1 PUSH2 0xF80 JUMP JUMPDEST SWAP2 SWAP1 POP SSTORE POP PUSH1 0x6 PUSH0 CALLER PUSH20 0xFFFFFFFFFFFFFFFFFFFFFFFFFFFFFFFFFFFFFFFF AND PUSH20 0xFFFFFFFFFFFFFFFFFFFFFFFFFFFFFFFFFFFFFFFF AND DUP2 MSTORE PUSH1 0x20 ADD SWAP1 DUP2 MSTORE PUSH1 0x20 ADD PUSH0 KECCAK256 PUSH0 DUP2 SLOAD DUP1 SWAP3 SWAP2 SWAP1 PUSH2 0x8D0 SWAP1 PUSH2 0xF80 JUMP JUMPDEST SWAP2 SWAP1 POP SSTORE POP PUSH2 0x8DF CALLER DUP3 PUSH2 0xE0A JUMP JUMPDEST CALLER PUSH20 0xFFFFFFFFFFFFFFFFFFFFFFFFFFFFFFFFFFFFFFFF AND PUSH32 0x2D4D49C3E017B8235C908CBAA83A2431A08F3B950712696ECE2088964FD399F0 DUP3 PUSH1 0x4 PUSH0 CALLER PUSH20 0xFFFFFFFFFFFFFFFFFFFFFFFFFFFFFFFFFFFFFFFF AND PUSH20 0xFFFFFFFFFFFFFFFFFFFFFFFFFFFFFFFFFFFFFFFF AND DUP2 MSTORE PUSH1 0x20 ADD SWAP1 DUP2 MSTORE PUSH1 0x20 ADD PUSH0 KECCAK256 SLOAD PUSH1 0x40 MLOAD PUSH2 0x964 SWAP3 SWAP2 SWAP1 PUSH2 0xF59 JUMP JUMPDEST PUSH1 0x40 MLOAD DUP1 SWAP2 SUB SWAP1 LOG2 POP JUMP JUMPDEST PUSH0 PUSH1 0x4 PUSH0 DUP4 PUSH20 0xFFFFFFFFFFFFFFFFFFFFFFFFFFFFFFFFFFFFFFFF AND PUSH20 0xFFFFFFFFFFFFFFFFFFFFFFFFFFFFFFFFFFFFFFFF AND DUP2 MSTORE PUSH1 0x20 ADD SWAP1 DUP2 MSTORE PUSH1 0x20 ADD PUSH0 KECCAK256 SLOAD SWAP1 POP SWAP2 SWAP1 POP JUMP JUMPDEST PUSH0 PUSH0 PUSH0 PUSH1 0x4 PUSH0 DUP6 PUSH20 0xFFFFFFFFFFFFFFFFFFFFFFFFFFFFFFFFFFFFFFFF AND PUSH20 0xFFFFFFFFFFFFFFFFFFFFFFFFFFFFFFFFFFFFFFFF AND DUP2 MSTORE PUSH1 0x20 ADD SWAP1 DUP2 MSTORE PUSH1 0x20 ADD PUSH0 KECCAK256 SLOAD SWAP3 POP PUSH1 0x5 PUSH0 DUP6 PUSH20 0xFFFFFFFFFFFFFFFFFFFFFFFFFFFFFFFFFFFFFFFF AND PUSH20 0xFFFFFFFFFFFFFFFFFFFFFFFFFFFFFFFFFFFFFFFF AND DUP2 MSTORE PUSH1 0x20 ADD SWAP1 DUP2 MSTORE PUSH1 0x20 ADD PUSH0 KECCAK256 SLOAD SWAP2 POP PUSH1 0x6 PUSH0 DUP6 PUSH20 0xFFFFFFFFFFFFFFFFFFFFFFFFFFFFFFFFFFFFFFFF AND PUSH20 0xFFFFFFFFFFFFFFFFFFFFFFFFFFFFFFFFFFFFFFFF AND DUP2 MSTORE PUSH1 0x20 ADD SWAP1 DUP2 MSTORE PUSH1 0x20 ADD PUSH0 KECCAK256 SLOAD SWAP1 POP SWAP2 SWAP4 SWAP1 SWAP3 POP JUMP JUMPDEST PUSH1 0x2 SLOAD DUP2 JUMP JUMPDEST PUSH1 0x5 PUSH1 0x20 MSTORE DUP1 PUSH0 MSTORE PUSH1 0x40 PUSH0 KECCAK256 PUSH0 SWAP2 POP SWAP1 POP SLOAD DUP2 JUMP JUMPDEST PUSH1 0x1 SLOAD DUP2 JUMP JUMPDEST PUSH32 0x0 DUP2 JUMP JUMPDEST PUSH1 0x3 PUSH0 SWAP1 SLOAD SWAP1 PUSH2 0x100 EXP SWAP1 DIV PUSH20 0xFFFFFFFFFFFFFFFFFFFFFFFFFFFFFFFFFFFFFFFF AND DUP2 JUMP JUMPDEST PUSH0 PUSH0 PUSH0 PUSH0 PUSH0 SLOAD SWAP4 POP PUSH1 0x1 SLOAD SWAP3 POP PUSH1 0x2 SLOAD SWAP2 POP PUSH0 PUSH32 0x0 GT ISZERO PUSH2 0xB64 JUMPI PUSH32 0x0 PUSH2 0x2710 PUSH0 SLOAD PUSH2 0xB53 SWAP2 SWAP1 PUSH2 0x11EE JUMP JUMPDEST PUSH2 0xB5D SWAP2 SWAP1 PUSH2 0x125C JUMP JUMPDEST SWAP1 POP PUSH2 0xB68 JUMP JUMPDEST PUSH0 SWAP1 POP JUMPDEST SWAP1 SWAP2 SWAP3 SWAP4 JUMP JUMPDEST PUSH0 CALLVALUE SUB PUSH2 0xBA7 JUMPI PUSH1 0x40 MLOAD PUSH32 0x836971DC00000000000000000000000000000000000000000000000000000000 DUP2 MSTORE PUSH1 0x4 ADD PUSH1 0x40 MLOAD DUP1 SWAP2 SUB SWAP1 REVERT JUMPDEST PUSH32 0x0 CALLVALUE PUSH0 SLOAD PUSH2 0xBD5 SWAP2 SWAP1 PUSH2 0xEE4 JUMP JUMPDEST GT ISZERO PUSH2 0xC46 JUMPI CALLVALUE PUSH0 SLOAD PUSH32 0x0 PUSH2 0xC09 SWAP2 SWAP1 PUSH2 0xF17 JUMP JUMPDEST PUSH1 0x40 MLOAD PUSH32 0xAAC9BF800000000000000000000000000000000000000000000000000000000 DUP2 MSTORE PUSH1 0x4 ADD PUSH2 0xC3D SWAP3 SWAP2 SWAP1 PUSH2 0xF59 JUMP JUMPDEST PUSH1 0x40 MLOAD DUP1 SWAP2 SUB SWAP1 REVERT JUMPDEST CALLVALUE PUSH1 0x4 PUSH0 CALLER PUSH20 0xFFFFFFFFFFFFFFFFFFFFFFFFFFFFFFFFFFFFFFFF AND PUSH20 0xFFFFFFFFFFFFFFFFFFFFFFFFFFFFFFFFFFFFFFFF AND DUP2 MSTORE PUSH1 0x20 ADD SWAP1 DUP2 MSTORE PUSH1 0x20 ADD PUSH0 KECCAK256 PUSH0 DUP3 DUP3 SLOAD PUSH2 0xC92 SWAP2 SWAP1 PUSH2 0xEE4 JUMP JUMPDEST SWAP3 POP POP DUP2 SWAP1 SSTORE POP CALLVALUE PUSH0 PUSH0 DUP3 DUP3 SLOAD PUSH2 0xCA9 SWAP2 SWAP1 PUSH2 0xEE4 JUMP JUMPDEST SWAP3 POP POP DUP2 SWAP1 SSTORE POP PUSH1 0x1 PUSH0 DUP2 SLOAD DUP1 SWAP3 SWAP2 SWAP1 PUSH2 0xCC2 SWAP1 PUSH2 0xF80 JUMP JUMPDEST SWAP2 SWAP1 POP SSTORE POP PUSH1 0x5 PUSH0 CALLER PUSH20 0xFFFFFFFFFFFFFFFFFFFFFFFFFFFFFFFFFFFFFFFF AND PUSH20 0xFFFFFFFFFFFFFFFFFFFFFFFFFFFFFFFFFFFFFFFF AND DUP2 MSTORE PUSH1 0x20 ADD SWAP1 DUP2 MSTORE PUSH1 0x20 ADD PUSH0 KECCAK256 PUSH0 DUP2 SLOAD DUP1 SWAP3 SWAP2 SWAP1 PUSH2 0xD14 SWAP1 PUSH2 0xF80 JUMP JUMPDEST SWAP2 SWAP1 POP SSTORE POP CALLER PUSH20 0xFFFFFFFFFFFFFFFFFFFFFFFFFFFFFFFFFFFFFFFF AND PUSH32 0xB05F0D1CD0819F155B8A61F60BAF7767C1EE49D04AEAAB701DF236140EB93F9 CALLVALUE PUSH1 0x4 PUSH0 CALLER PUSH20 0xFFFFFFFFFFFFFFFFFFFFFFFFFFFFFFFFFFFFFFFF AND PUSH20 0xFFFFFFFFFFFFFFFFFFFFFFFFFFFFFFFFFFFFFFFF AND DUP2 MSTORE PUSH1 0x20 ADD SWAP1 DUP2 MSTORE PUSH1 0x20 ADD PUSH0 KECCAK256 SLOAD PUSH1 0x40 MLOAD PUSH2 0xD9E SWAP3 SWAP2 SWAP1 PUSH2 0xF59 JUMP JUMPDEST PUSH1 0x40 MLOAD DUP1 SWAP2 SUB SWAP1 LOG2 JUMP JUMPDEST PUSH32 0x0 DUP2 JUMP JUMPDEST PUSH0 SLOAD DUP2 JUMP JUMPDEST PUSH1 0x40 MLOAD DUP1 PUSH1 0x40 ADD PUSH1 0x40 MSTORE DUP1 PUSH1 0x5 DUP2 MSTORE PUSH1 0x20 ADD PUSH32 0x312E302E30000000000000000000000000000000000000000000000000000000 DUP2 MSTORE POP DUP2 JUMP JUMPDEST PUSH0 DUP3 PUSH20 0xFFFFFFFFFFFFFFFFFFFFFFFFFFFFFFFFFFFFFFFF AND DUP3 PUSH1 0x40 MLOAD PUSH2 0xE2F SWAP1 PUSH2 0x12B9 JUMP JUMPDEST PUSH0 PUSH1 0x40 MLOAD DUP1 DUP4 SUB DUP2 DUP6 DUP8 GAS CALL SWAP3 POP POP POP RETURNDATASIZE DUP1 PUSH0 DUP2 EQ PUSH2 0xE69 JUMPI PUSH1 0x40 MLOAD SWAP2 POP PUSH1 0x1F NOT PUSH1 0x3F RETURNDATASIZE ADD AND DUP3 ADD PUSH1 0x40 MSTORE RETURNDATASIZE DUP3 MSTORE RETURNDATASIZE PUSH0 PUSH1 0x20 DUP5 ADD RETURNDATACOPY PUSH2 0xE6E JUMP JUMPDEST PUSH1 0x60 SWAP2 POP JUMPDEST POP POP SWAP1 POP DUP1 PUSH2 0xEA9 JUMPI PUSH1 0x40 MLOAD PUSH32 0x90B8EC1800000000000000000000000000000000000000000000000000000000 DUP2 MSTORE PUSH1 0x4 ADD PUSH1 0x40 MLOAD DUP1 SWAP2 SUB SWAP1 REVERT JUMPDEST POP POP POP JUMP JUMPDEST PUSH0 DUP2 SWAP1 POP SWAP2 SWAP1 POP JUMP JUMPDEST PUSH32 0x4E487B7100000000000000000000000000000000000000000000000000000000 PUSH0 MSTORE PUSH1 0x11 PUSH1 0x4 MSTORE PUSH1 0x24 PUSH0 REVERT JUMPDEST PUSH0 PUSH2 0xEEE DUP3 PUSH2 0xEAE JUMP JUMPDEST SWAP2 POP PUSH2 0xEF9 DUP4 PUSH2 0xEAE JUMP JUMPDEST SWAP3 POP DUP3 DUP3 ADD SWAP1 POP DUP1 DUP3 GT ISZERO PUSH2 0xF11 JUMPI PUSH2 0xF10 PUSH2 0xEB7 JUMP JUMPDEST JUMPDEST SWAP3 SWAP2 POP POP JUMP JUMPDEST PUSH0 PUSH2 0xF21 DUP3 PUSH2 0xEAE JUMP JUMPDEST SWAP2 POP PUSH2 0xF2C DUP4 PUSH2 0xEAE JUMP JUMPDEST SWAP3 POP DUP3 DUP3 SUB SWAP1 POP DUP2 DUP2 GT ISZERO PUSH2 0xF44 JUMPI PUSH2 0xF43 PUSH2 0xEB7 JUMP JUMPDEST JUMPDEST SWAP3 SWAP2 POP POP JUMP JUMPDEST PUSH2 0xF53 DUP2 PUSH2 0xEAE JUMP JUMPDEST DUP3 MSTORE POP POP JUMP JUMPDEST PUSH0 PUSH1 0x40 DUP3 ADD SWAP1 POP PUSH2 0xF6C PUSH0 DUP4 ADD DUP6 PUSH2 0xF4A JUMP JUMPDEST PUSH2 0xF79 PUSH1 0x20 DUP4 ADD DUP5 PUSH2 0xF4A JUMP JUMPDEST SWAP4 SWAP3 POP POP POP JUMP JUMPDEST PUSH0 PUSH2 0xF8A DUP3 PUSH2 0xEAE JUMP JUMPDEST SWAP2 POP PUSH32 0xFFFFFFFFFFFFFFFFFFFFFFFFFFFFFFFFFFFFFFFFFFFFFFFFFFFFFFFFFFFFFFFF DUP3 SUB PUSH2 0xFBC JUMPI PUSH2 0xFBB PUSH2 0xEB7 JUMP JUMPDEST JUMPDEST PUSH1 0x1 DUP3 ADD SWAP1 POP SWAP2 SWAP1 POP JUMP JUMPDEST PUSH0 PUSH0 REVERT JUMPDEST PUSH0 PUSH20 0xFFFFFFFFFFFFFFFFFFFFFFFFFFFFFFFFFFFFFFFF DUP3 AND SWAP1 POP SWAP2 SWAP1 POP JUMP JUMPDEST PUSH0 PUSH2 0xFF4 DUP3 PUSH2 0xFCB JUMP JUMPDEST SWAP1 POP SWAP2 SWAP1 POP JUMP JUMPDEST PUSH2 0x1004 DUP2 PUSH2 0xFEA JUMP JUMPDEST DUP2 EQ PUSH2 0x100E JUMPI PUSH0 PUSH0 REVERT JUMPDEST POP JUMP JUMPDEST PUSH0 DUP2 CALLDATALOAD SWAP1 POP PUSH2 0x101F DUP2 PUSH2 0xFFB JUMP JUMPDEST SWAP3 SWAP2 POP POP JUMP JUMPDEST PUSH0 PUSH1 0x20 DUP3 DUP5 SUB SLT ISZERO PUSH2 0x103A JUMPI PUSH2 0x1039 PUSH2 0xFC7 JUMP JUMPDEST JUMPDEST PUSH0 PUSH2 0x1047 DUP5 DUP3 DUP6 ADD PUSH2 0x1011 JUMP JUMPDEST SWAP2 POP POP SWAP3 SWAP2 POP POP JUMP JUMPDEST PUSH0 PUSH1 0x20 DUP3 ADD SWAP1 POP PUSH2 0x1063 PUSH0 DUP4 ADD DUP5 PUSH2 0xF4A JUMP JUMPDEST SWAP3 SWAP2 POP POP JUMP JUMPDEST PUSH2 0x1072 DUP2 PUSH2 0xEAE JUMP JUMPDEST DUP2 EQ PUSH2 0x107C JUMPI PUSH0 PUSH0 REVERT JUMPDEST POP JUMP JUMPDEST PUSH0 DUP2 CALLDATALOAD SWAP1 POP PUSH2 0x108D DUP2 PUSH2 0x1069 JUMP JUMPDEST SWAP3 SWAP2 POP POP JUMP JUMPDEST PUSH0 PUSH1 0x20 DUP3 DUP5 SUB SLT ISZERO PUSH2 0x10A8 JUMPI PUSH2 0x10A7 PUSH2 0xFC7 JUMP JUMPDEST JUMPDEST PUSH0 PUSH2 0x10B5 DUP5 DUP3 DUP6 ADD PUSH2 0x107F JUMP JUMPDEST SWAP2 POP POP SWAP3 SWAP2 POP POP JUMP JUMPDEST PUSH0 PUSH1 0x60 DUP3 ADD SWAP1 POP PUSH2 0x10D1 PUSH0 DUP4 ADD DUP7 PUSH2 0xF4A JUMP JUMPDEST PUSH2 0x10DE PUSH1 0x20 DUP4 ADD DUP6 PUSH2 0xF4A JUMP JUMPDEST PUSH2 0x10EB PUSH1 0x40 DUP4 ADD DUP5 PUSH2 0xF4A JUMP JUMPDEST SWAP5 SWAP4 POP POP POP POP JUMP JUMPDEST PUSH2 0x10FC DUP2 PUSH2 0xFEA JUMP JUMPDEST DUP3 MSTORE POP POP JUMP JUMPDEST PUSH0 PUSH1 0x20 DUP3 ADD SWAP1 POP PUSH2 0x1115 PUSH0 DUP4 ADD DUP5 PUSH2 0x10F3 JUMP JUMPDEST SWAP3 SWAP2 POP POP JUMP JUMPDEST PUSH0 PUSH1 0x80 DUP3 ADD SWAP1 POP PUSH2 0x112E PUSH0 DUP4 ADD DUP8 PUSH2 0xF4A JUMP JUMPDEST PUSH2 0x113B PUSH1 0x20 DUP4 ADD DUP7 PUSH2 0xF4A JUMP JUMPDEST PUSH2 0x1148 PUSH1 0x40 DUP4 ADD DUP6 PUSH2 0xF4A JUMP JUMPDEST PUSH2 0x1155 PUSH1 0x60 DUP4 ADD DUP5 PUSH2 0xF4A JUMP JUMPDEST SWAP6 SWAP5 POP POP POP POP POP JUMP JUMPDEST PUSH0 DUP2 MLOAD SWAP1 POP SWAP2 SWAP1 POP JUMP JUMPDEST PUSH0 DUP3 DUP3 MSTORE PUSH1 0x20 DUP3 ADD SWAP1 POP SWAP3 SWAP2 POP POP JUMP JUMPDEST DUP3 DUP2 DUP4 MCOPY PUSH0 DUP4 DUP4 ADD MSTORE POP POP POP JUMP JUMPDEST PUSH0 PUSH1 0x1F NOT PUSH1 0x1F DUP4 ADD AND SWAP1 POP SWAP2 SWAP1 POP JUMP JUMPDEST PUSH0 PUSH2 0x11A0 DUP3 PUSH2 0x115E JUMP JUMPDEST PUSH2 0x11AA DUP2 DUP6 PUSH2 0x1168 JUMP JUMPDEST SWAP4 POP PUSH2 0x11BA DUP2 DUP6 PUSH1 0x20 DUP7 ADD PUSH2 0x1178 JUMP JUMPDEST PUSH2 0x11C3 DUP2 PUSH2 0x1186 JUMP JUMPDEST DUP5 ADD SWAP2 POP POP SWAP3 SWAP2 POP POP JUMP JUMPDEST PUSH0 PUSH1 0x20 DUP3 ADD SWAP1 POP DUP2 DUP2 SUB PUSH0 DUP4 ADD MSTORE PUSH2 0x11E6 DUP2 DUP5 PUSH2 0x1196 JUMP JUMPDEST SWAP1 POP SWAP3 SWAP2 POP POP JUMP JUMPDEST PUSH0 PUSH2 0x11F8 DUP3 PUSH2 0xEAE JUMP JUMPDEST SWAP2 POP PUSH2 0x1203 DUP4 PUSH2 0xEAE JUMP JUMPDEST SWAP3 POP DUP3 DUP3 MUL PUSH2 0x1211 DUP2 PUSH2 0xEAE JUMP JUMPDEST SWAP2 POP DUP3 DUP3 DIV DUP5 EQ DUP4 ISZERO OR PUSH2 0x1228 JUMPI PUSH2 0x1227 PUSH2 0xEB7 JUMP JUMPDEST JUMPDEST POP SWAP3 SWAP2 POP POP JUMP JUMPDEST PUSH32 0x4E487B7100000000000000000000000000000000000000000000000000000000 PUSH0 MSTORE PUSH1 0x12 PUSH1 0x4 MSTORE PUSH1 0x24 PUSH0 REVERT JUMPDEST PUSH0 PUSH2 0x1266 DUP3 PUSH2 0xEAE JUMP JUMPDEST SWAP2 POP PUSH2 0x1271 DUP4 PUSH2 0xEAE JUMP JUMPDEST SWAP3 POP DUP3 PUSH2 0x1281 JUMPI PUSH2 0x1280 PUSH2 0x122F JUMP JUMPDEST JUMPDEST DUP3 DUP3 DIV SWAP1 POP SWAP3 SWAP2 POP POP JUMP JUMPDEST PUSH0 DUP2 SWAP1 POP SWAP3 SWAP2 POP POP JUMP JUMPDEST POP JUMP JUMPDEST PUSH0 PUSH2 0x12A4 PUSH0 DUP4 PUSH2 0x128C JUMP JUMPDEST SWAP2 POP PUSH2 0x12AF DUP3 PUSH2 0x1296 JUMP JUMPDEST PUSH0 DUP3 ADD SWAP1 POP SWAP2 SWAP1 POP JUMP JUMPDEST PUSH0 PUSH2 0x12C3 DUP3 PUSH2 0x1299 JUMP JUMPDEST SWAP2 POP DUP2 SWAP1 POP SWAP2 SWAP1 POP JUMP INVALID LOG2 PUSH5 0x6970667358 0x22 SLT KECCAK256 0xD8 CALLF 0x26AA 0xBA SWAP5 0xB3 PUSH7 0xE09AD89E4B70DF TLOAD DUP10 PUSH32 0xAA6E11AF133CA6407273F77AAC9764736F6C634300081E003300000000000000 "
				},
				"gasEstimates": {
					"creation": {
						"codeDepositCost": "973400",
						"executionCost": "infinite",
						"totalCost": "infinite"
					},
					"external": {
						"VERSION()": "infinite",
						"bankCap()": "infinite",
						"deposit()": "infinite",
						"getBankStats()": "infinite",
						"getUserBalance(address)": "2852",
						"getUserStats(address)": "infinite",
						"owner()": "2575",
						"totalDeposited()": "2490",
						"totalDeposits()": "2448",
						"totalWithdrawals()": "2492",
						"userBalances(address)": "2826",
						"userDepositCount(address)": "2891",
						"userWithdrawalCount(address)": "2848",
						"withdraw(uint256)": "infinite",
						"withdrawalLimit()": "infinite"
					},
					"internal": {
						"_safeTransfer(address,uint256)": "infinite"
					}
				},
				"methodIdentifiers": {
					"VERSION()": "ffa1ad74",
					"bankCap()": "ecbea24d",
					"deposit()": "d0e30db0",
					"getBankStats()": "c6e8e38c",
					"getUserBalance(address)": "47734892",
					"getUserStats(address)": "4e43603a",
					"owner()": "8da5cb5b",
					"totalDeposited()": "ff50abdc",
					"totalDeposits()": "7d882097",
					"totalWithdrawals()": "60464627",
					"userBalances(address)": "26224c64",
					"userDepositCount(address)": "729c3e0e",
					"userWithdrawalCount(address)": "27275146",
					"withdraw(uint256)": "2e1a7d4d",
					"withdrawalLimit()": "7ddfe78d"
				}
			},
			"storageLayout": {
				"storage": [
					{
						"astId": 15,
						"contract": "contrato/KipuBank.sol:KipuBank",
						"label": "totalDeposited",
						"offset": 0,
						"slot": "0",
						"type": "t_uint256"
					},
					{
						"astId": 18,
						"contract": "contrato/KipuBank.sol:KipuBank",
						"label": "totalDeposits",
						"offset": 0,
						"slot": "1",
						"type": "t_uint256"
					},
					{
						"astId": 21,
						"contract": "contrato/KipuBank.sol:KipuBank",
						"label": "totalWithdrawals",
						"offset": 0,
						"slot": "2",
						"type": "t_uint256"
					},
					{
						"astId": 24,
						"contract": "contrato/KipuBank.sol:KipuBank",
						"label": "owner",
						"offset": 0,
						"slot": "3",
						"type": "t_address"
					},
					{
						"astId": 29,
						"contract": "contrato/KipuBank.sol:KipuBank",
						"label": "userBalances",
						"offset": 0,
						"slot": "4",
						"type": "t_mapping(t_address,t_uint256)"
					},
					{
						"astId": 34,
						"contract": "contrato/KipuBank.sol:KipuBank",
						"label": "userDepositCount",
						"offset": 0,
						"slot": "5",
						"type": "t_mapping(t_address,t_uint256)"
					},
					{
						"astId": 39,
						"contract": "contrato/KipuBank.sol:KipuBank",
						"label": "userWithdrawalCount",
						"offset": 0,
						"slot": "6",
						"type": "t_mapping(t_address,t_uint256)"
					}
				],
				"types": {
					"t_address": {
						"encoding": "inplace",
						"label": "address",
						"numberOfBytes": "20"
					},
					"t_mapping(t_address,t_uint256)": {
						"encoding": "mapping",
						"key": "t_address",
						"label": "mapping(address => uint256)",
						"numberOfBytes": "32",
						"value": "t_uint256"
					},
					"t_uint256": {
						"encoding": "inplace",
						"label": "uint256",
						"numberOfBytes": "32"
					}
				}
			},
			"userdoc": {
				"errors": {
					"DepositExceedsBankCap(uint256,uint256)": [
						{
							"notice": "Error cuando el depósito excede el límite del banco"
						}
					],
					"DepositMustBeGreaterThanZero()": [
						{
							"notice": "Error cuando el depósito es de 0 ETH"
						}
					],
					"InsufficientBalance(uint256,uint256)": [
						{
							"notice": "Error cuando el retiro excede el balance del usuario"
						}
					],
					"NoFundsDeposited()": [
						{
							"notice": "Error cuando el usuario no tiene fondos depositados"
						}
					],
					"TransferFailed()": [
						{
							"notice": "Error cuando la transferencia de ETH falla"
						}
					],
					"WithdrawalExceedsLimit(uint256,uint256)": [
						{
							"notice": "Error cuando el retiro excede el límite por transacción"
						}
					],
					"WithdrawalMustBeGreaterThanZero()": [
						{
							"notice": "Error cuando el retiro es de 0 ETH"
						}
					]
				},
				"events": {
					"DepositMade(address,uint256,uint256)": {
						"notice": "Evento emitido cuando un usuario realiza un depósito exitoso"
					},
					"WithdrawalMade(address,uint256,uint256)": {
						"notice": "Evento emitido cuando un usuario realiza un retiro exitoso"
					}
				},
				"kind": "user",
				"methods": {
					"VERSION()": {
						"notice": "Versión del contrato"
					},
					"bankCap()": {
						"notice": "Límite máximo de depósitos totales en el banco (10 ETH)"
					},
					"constructor": {
						"notice": "Constructor del contrato KipuBank"
					},
					"deposit()": {
						"notice": "Permite a los usuarios depositar ETH en su bóveda personal"
					},
					"getBankStats()": {
						"notice": "Obtiene estadísticas completas del banco"
					},
					"getUserBalance(address)": {
						"notice": "Obtiene el balance de un usuario específico"
					},
					"getUserStats(address)": {
						"notice": "Obtiene estadísticas de un usuario específico"
					},
					"owner()": {
						"notice": "Dirección del propietario del contrato"
					},
					"totalDeposited()": {
						"notice": "Total de ETH depositado en el banco"
					},
					"totalDeposits()": {
						"notice": "Contador total de depósitos realizados"
					},
					"totalWithdrawals()": {
						"notice": "Contador total de retiros realizados"
					},
					"userBalances(address)": {
						"notice": "Mapeo de direcciones a sus balances depositados"
					},
					"userDepositCount(address)": {
						"notice": "Mapeo de direcciones a número de depósitos realizados"
					},
					"userWithdrawalCount(address)": {
						"notice": "Mapeo de direcciones a número de retiros realizados"
					},
					"withdraw(uint256)": {
						"notice": "Permite a los usuarios retirar ETH de su bóveda personal"
					},
					"withdrawalLimit()": {
						"notice": "Límite máximo de retiro por transacción (0.1 ETH)"
					}
				},
				"notice": "Un contrato de banco simple que permite depósitos y retiros de ETH",
				"version": 1
			}
		}
	}
}